:020000040800F2
:100000002808002081870008512600085326000890
:10001000572600085B2600085F2600080000000045
:10002000000000000000000000000000632600083F
:100030006526000800000000672600086926000801
:100040009B8700089B8700089B8700089B87000808
:100050009B8700089B8700089B8700089B870008F8
:100060009B8700089B8700089B8700089B870008E8
:100070009B8700089B8700089B8700089B870008D8
:100080009B8700089B8700089B8700089B870008C8
:100090009B8700089B8700089B8700089B870008B8
:1000A0009B8700089B8700089B8700089B870008A8
:1000B0009B8700089B8700089B8700089B87000898
:1000C0009B8700089B8700089B8700089B87000888
:1000D0009B870008F58600089B8700089B8700081F
:1000E0009B8700089B8700089B8700089B87000868
:1000F0009B8700089B8700089B8700089B87000858
:100100009B8700089B8700089B8700089B87000847
:100110009B8700089B8700089B8700089B87000837
:100120009B8700089B8700089B8700089B87000827
:100130009B8700089B8700089B8700089B87000817
:100140009B8700089B8700089B8700089B87000807
:100150009B8700089B8700089B8700089B870008F7
:100160009B8700089B8700089B8700089B870008E7
:100170009B8700089B8700089B8700089B870008D7
:100180009B8700089B87000800F002F800F04FF8FA
:100190000AA090E8000C82448344AAF10107DA45E2
:1001A00001D100F044F8AFF2090EBAE80F0013F0E5
:1001B000010F18BFFB1A43F001031847B8CC000029
:1001C000D8CC0000103A24BF78C878C1FAD85207BA
:1001D00024BF30C830C144BF04680C6070470000C1
:1001E0000023002400250026103A28BF78C1FBD840
:1001F000520728BF30C148BF0B60704766290BF01B
:10020000C881642909F00885782909F04185002012
:1002100070471FB50BF0B3F90AF06AF8040000202C
:1002200000210AF0CDFDE0601FBD10B510BD0AF041
:1002300077F91146FFF7EDFF01F0F0FE0AF095F9AE
:1002400003B4FFF7F2FF03BC08F0F4F90A460021FB
:1002500090ED000AF0EE400A90ED000AB0EE401A70
:1002600000BF1EE000EB810393ED000AB4EEE00A4C
:10027000F1EE10FA05DD00EB810393ED000AF0EEDC
:10028000400A00EB810393ED000AB4EEC10AF1EEDF
:1002900010FA05D200EB810393ED000AB0EE401A8C
:1002A000491C9142DEDB30EEC10A70470246002055
:1002B000DFEDFD0AB0EE600A00BF08E002EB80034C
:1002C000D3ED000A70EE800AB0EE600A401C88424E
:1002D000F4DB00EE901AF8EEE00A80EE201AB0EEA1
:1002E000410A704770B506460C4600259FEDEE0AA0
:1002F000F0EE401A21463046FFF7D8FFB0EE402A14
:1003000000BF1DE006EB850191ED000ADFEDE70A75
:1003100020EE200ADFEDE50A00EEC20ABDEEC00ABB
:1003200010EE100A002801DB014600E0414200EE19
:10033000101AB8EEC00A30EE210AF0EE401A6D1C19
:10034000A542DFDBB2EE040A61EE800A601E00EE19
:10035000100AB8EEC00A80EE801AF0EE411ADFED06
:10036000D30A81EEA00A70BD10B50446944203D1B1
:10037000994201D1012010BD0020FCE7F0B52DED20
:10038000088B83B00446B0EE408A07F007F90026D8
:1003900097E0002520E0002007F0DFFE30EE480A5D
:1003A000C34800EB850080ED000AC24800680128C0
:1003B0000ED1002007F0F3FEBD4800EB8500D0ED24
:1003C000000A30EEC00ABA4800EB850080ED000A52
:1003D000322008F09FF86D1C0A2DDCDB0A21B4489E
:1003E000FFF764FFF0EE408A0A21B148FFF72EFFC5
:1003F000B0EE409A19EE100A0BF050F841EC1A0BCF
:100400009FEDAD0B53EC102B0AF00EFF57D218EEF8
:10041000900A0BF043F841EC1A0B9FEDA90B53EC3B
:10042000102B0AF001FF00D24AE00A21A048FFF792
:100430003DFF601EA44901EB800080ED000A0A2107
:100440009B48FFF74FFF601EA04901EB800080ED45
:10045000000A601E0A4602EB800090ED000A10EED2
:10046000101A08460BF01AF841EC1A0B601E964A57
:1004700002EB800090ED000A10EE101A08460BF017
:100480000DF841EC1B0B8DED00AB53EC1B2B90A03A
:1004900009F08EFB4FF4FC609449088094A0102171
:1004A0000B46D222CDE9001011461E2007F00BF8B2
:1004B00007F07FF8002003B0BDEC088BF0BD00BF53
:1004C000761C032EFFF665AF07F07FF84FF47840F7
:1004D000864908808BA010210B46D222CDE900105E
:1004E00011461E2006F0EFFF0A217148FFF7AEFE0D
:1004F00010EE107A38460AF0D1FF41EC1A0B53EC9B
:100500001A2B864809F054FB0120D4E703B52DEDE2
:10051000020B8BB001231A46DDE90D01FFF724FF22
:10052000002840D07EA009F043FB4FF6E0706F49F1
:10053000088082A00C210B46C822CDE9001040F2B1
:1005400059111E2006F0BFFF9DED0B0A0120FFF799
:1005500015FF07904FF4FC6064490880079850B974
:100560007CA00C210B46C822CDE9001040F25911A5
:100570001E2006F0A8FF00205C4908801020009093
:10058000514890ED000ADFED790A20EE200ABCEE1A
:10059000C00A8DED060A0323BE216420069A06F0E8
:1005A000DAFE01F000B802230122DDE90D01FFF7B8
:1005B000DBFE00283FD06EA009F0FAFA4FF6E0709B
:1005C0004A49088071A00C210B46C822CDE90010D1
:1005D0004FF4B4711E2006F076FF9DED0B0A022049
:1005E000FFF7CCFE07904FF4FC6040490880079865
:1005F00050B96CA00C210B46C822CDE900104FF475
:10060000B4711E2006F05FFF0020384908801020DA
:1006100000902D4890ED010ADFED540A20EE200AEB
:10062000BCEEC00A8DED060A0323BE218C20069A7B
:1006300006F091FEB5E703230122DDE90D01FFF786
:1006400093FE00282FD05DA009F0B2FA4FF6E070BB
:100650002649088060A00C210B46C822CDE9001075
:1006600040F277111E2006F02EFF9DED0B0A0320AD
:10067000FFF784FE07904FF4FC601C490880079840
:1006800050B95BA00C210B46C822CDE9001040F206
:1006900077111E2006F017FF002014490880102053
:1006A00000900948B0E0C0E00000000000401C4697
:1006B000C8000020240000209A9999999999C93F6F
:1006C0009A9999999999D93F00000020A800002093
:1006D0004D65616E3D25662C20556E6365727461B3
:1006E000696E74793D2566200D0A000084000020A3
:1006F000547261696E205374617475733A204F4B64
:100700002E000000547261696E2053746174757319
:100710003A204661696C65642E00000030CE000806
:10072000666F72205472616E696E67206F66206713
:1007300065737475726520312E0D0A00313A676554
:100740007374757265203120747261696E696E67A9
:100750002E000000313A6765737475726520312090
:10076000547261696E656421212100000000C84255
:10077000666F72205472616E696E67206F662067C3
:1007800065737475726520322E0D0A00323A676502
:100790007374757265203220747261696E696E6758
:1007A0002E000000323A676573747572652032203E
:1007B000547261696E65642121210000666F7220A8
:1007C0005472616E696E67206F6620676573747519
:1007D000726520332E0D0A00333A676573747572A3
:1007E00065203320747261696E696E672E000000A7
:1007F000333A67657374757265203320547261698A
:100800006E6564212121000090ED020A5FED290A46
:1008100020EE200ABCEEC00A8DED060A0323BE219D
:10082000B420069A06F097FDBBE601230222DDE91B
:100830000D01FFF799FD00283FD0F9A009F0B8F9A4
:100840004FF6E070FD490880FDA00C210B46C82240
:10085000CDE900104FF4C3711E2006F034FE9DED6B
:100860000B0A0420FFF78AFD07904FF4FC61F34860
:100870000180079850B9F8A00C210B46C822CDE999
:1008800000104FF4C3711E2006F01DFE0020EB493E
:10089000088010200090F64890ED030A5FED4D0AA5
:1008A00020EE200ABCEEC00A8DED060A0323BE210D
:1008B000DC20069A06F04FFD73E602231A46DDE9B6
:1008C0000D01FFF751FD002840D0EAA009F070F9B2
:1008D0004FF6E070D9490880EDA00C210B46C822E4
:1008E000CDE9001040F295111E2006F0ECFD9DEDC3
:1008F0000B0A0520FFF742FD07904FF4FC60CF493B
:100900000880079850B9E8A00C210B46C822CDE911
:10091000001040F295111E2006F0D5FD0020C749B9
:10092000088010200090D24890ED040A5FED710A13
:1009300020EE200ABCEEC00A8DED060A0323BE217C
:100940004FF48270069A06F006FD2AE6012304227F
:10095000DDE90D01FFF708FD00283FD0D8A009F020
:1009600027F94FF6E070B5490880DDA00C210B4651
:10097000C822CDE9001040F21D111E2006F0A3FD93
:100980009DED0B0A0620FFF7F9FC07904FF4FC6081
:10099000AA490880079850B9D7A00C210B46C82255
:1009A000CDE9001040F21D111E2006F08CFD002044
:1009B000A249088010200090AD4890ED050A5FED37
:1009C000950A20EE200ABCEEC00A8DED060A03232C
:1009D000AA216420069A06F0BEFCE2E50323042265
:1009E000DDE90D01FFF7C0FC00283FD0C8A009F0E9
:1009F000DFF84FF6E07091490880CDA00C210B463E
:100A0000C822CDE900104FF496711E2006F05BFD60
:100A10009DED0B0A0720FFF7B1FC07904FF4FC6037
:100A200086490880079850B9C7A00C210B46C822F8
:100A3000CDE900104FF496711E2006F044FD002011
:100A40007E49088010200090894890ED060A5FEDED
:100A5000B90A20EE200ABCEEC00A8DED060A032377
:100A6000AA21A020069A06F076FC9AE504231A46ED
:100A7000DDE90D01FFF778FC00283FD0B8A009F0B0
:100A800097F84FF6E0706D490880BCA00C210B462A
:100A9000C822CDE9001040F23B111E2006F013FDE4
:100AA0009DED0B0A0820FFF769FC07904FF4FC60EE
:100AB00062490880079850B9B6A00C210B46C8229D
:100AC000CDE9001040F23B111E2006F0FCFC002096
:100AD0005A49088010200090654890ED070A5FEDA4
:100AE000DD0A20EE200ABCEEC00A8DED060A0323C3
:100AF000AA21DC20069A06F02EFC52E504230122EE
:100B0000DDE90D01FFF730FC00287BD0A7A009F03C
:100B10004FF8002049490880ABA00C210B46B422B5
:100B2000CDE900104FF487711E2006F0CCFC0020A8
:100B3000099026E0002007F010FBDDED0B0A30EEF7
:100B4000600AA749099801EB800080ED000AA548DA
:100B5000006801280FD1002007F021FBA049099867
:100B600001EB8000D0ED000A30EEC00A099801EBDD
:100B7000800080ED000A322007F0CCFC0998401C70
:100B8000099009980528D5DB05219548FFF78EFBCC
:100B90008DED080A364890ED050AD0ED060A30EED4
:100BA000200AB0EE001AC0EE010A9DED080AF4EE2C
:100BB000C00AF1EE10FA32DD1F20204908808AA019
:100BC00010210B46D222CDE900101E21084606F066
:100BD0007AFC8BA010210B466422CDE900101E2167
:100BE0004FF4827006F06FFC00201449088085A045
:100BF00010210B46D222CDE90010E6211E2006F07E
:100C000062FC00E094E184A010210B466422CDE94F
:100C10000010E6214FF4827006F055FC00E105E17A
:100C2000666F72205472616E696E67206F6620670E
:100C300065737475726520342E0D0A0084000020DF
:100C4000343A676573747572652034207472616913
:100C50006E696E672E000000343A676573747572B2
:100C600065203420547261696E6564212121000081
:100C700000000020666F72205472616E696E6720FA
:100C80006F66206765737475726520352E0D0A00D6
:100C9000353A6765737475726520352074726169C1
:100CA0006E696E672E000000353A67657374757261
:100CB00065203520547261696E6564212121000030
:100CC000666F72205472616E696E67206F6620676E
:100CD0006573747572652053542E0D0A0000000070
:100CE0002A3A676573747572652053542074726173
:100CF000696E696E672E00002A3A676573747572B3
:100D00006520535420547261696E6564212121006D
:100D1000666F72205472616E696E67206F6620671D
:100D2000657374757265204A442E0D0A0000000038
:100D3000233A67657374757265204A442074726142
:100D4000696E696E672E0000233A67657374757269
:100D500065204A4420547261696E65642121210036
:100D6000666F72205472616E696E67206F662067CD
:100D700065737475726520422E0D0A00443A6765EA
:100D80007374757265204220747261696E696E6752
:100D90002E000000443A6765737475726520422026
:100DA000547261696E65642121210000466F7220D2
:100DB000446574656374696F6E206F662053544A8E
:100DC00044422E0D0A000000413A44657465637484
:100DD000696F6E206F662053544A44420000000041
:100DE000C8000020240000204765737475726520D8
:100DF0005265636F676E697A65643A20200000006F
:100E0000535420004C617374207265636F676E6980
:100E10007A65643A2000000053542020000000004E
:100E200006F01CFCEFA008F0C3FEBCE3F44890ED14
:100E3000060AD0ED070A30EE200AB0EE001AC0EE26
:100E4000010A9DED080AF4EEC00AF1EE10FA37DD52
:100E50001F20EC490880AFF2700010210B46D2220F
:100E6000CDE900101E21084606F02DFBE6A010215A
:100E70000B466422CDE900101E214FF4827006F06B
:100E800022FB0020DF490880AFF2880110200346D2
:100E9000D222CDE90001E6211E2006F014FBDBA0E2
:100EA00010210B466422CDE90010E6214FF4827038
:100EB00006F009FB06F0E1FBD6A008F079FE72E32C
:100EC0001F21D0480180AFF2E00010210B46D22252
:100ED000CDE900101E21084606F0F5FAD4A1102035
:100EE00003466422CDE900011E214FF4827006F012
:100EF000EAFA0020C3490880AFF2F80010210B463F
:100F0000D222CDE90010E6211E2006F0DCFAC8A1AD
:100F1000102003466422CDE90001E6214FF48270DF
:100F200006F0D1FA06F0B9FBC2A008F041FE3AE3A0
:100F300004230222DDE90D01FFF716FA00287DD017
:100F4000C3A008F035FE0020AE490880C7A00C21E0
:100F50000B46B422CDE900104FF4A5711E2006F017
:100F6000B2FA0020099026E0002007F0F6F8DDED47
:100F70000B0A30EE600AC349099801EB800080ED4E
:100F8000000AC148006801280FD1002007F007F9C6
:100F9000BC49099801EB8000D0ED000A30EEC00A90
:100FA000099801EB800080ED000A322007F0B2FAC8
:100FB0000998401C099009980528D5DB0521B148FE
:100FC000FFF774F98DED080A01200990A8E009984F
:100FD000052850DA0998401E894901EB800090ED00
:100FE000000A099801EB8000D0ED000A30EE200ADB
:100FF000B0EE001AC0EE010A9DED080AF4EEC00A38
:10100000F1EE10FA37DB1F207E490880AFF228206E
:1010100010210B46D222CDE900101E21084606F011
:1010200052FA1020022300901E214FF48270099A78
:1010300006F091F900207349088000E07AE0AFF2F1
:101040003C2010210B46D222CDE90010E6211E20C3
:1010500006F039FA102002230090E6214FF4827046
:10106000099A06F078F9099806F0CFFA87A009994D
:1010700008F09EFD58E0099805284ED10998801E79
:101080005F4901EB800090ED000A0998401E01EBDA
:101090008000D0ED000A30EE200AB0EE001AC0EE5B
:1010A000010A9DED080AF4EEC00AF1EE10FA34D2FE
:1010B0001F2154480180AFF2D02110200346B422F2
:1010C000CDE900011E21084606F0FDF9102002239B
:1010D00000901E214FF48270099A06F03CF900211D
:1010E00048480180AFF2E42110200346D222CDE926
:1010F0000001E6211E2006F0E6F9102002230090F0
:10110000E6214FF48270099A06F025F9099806F055
:101110007CFA5EA0099908F04BFD0998401C0990E3
:1011200009980628FFF653AF00BF4FF4967007F0FA
:10113000F1F938E203231A46DDE90D01FFF714F94E
:1011400000284DD0002006902E49088056A00C2182
:101150000B46C822CDE900104FF4D2711E2006F0D4
:10116000B2F90020069021E05649069851F8200077
:1011700001900AF093F9CDE904012149069851F84C
:10118000200001900AF08AF9CDE90201DDE90401AD
:10119000CDE900019DED020B53EC102B0699491C83
:1011A00049A008F005FD0698401C06900698052801
:1011B000DADB4448406901900AF070F9CDE9040196
:1011C0000F48406901900AF069F9CDE90201DDE9B3
:1011D0000401CDE900019DED020B53EC102B89E0D9
:1011E0006EE100007265636F676E697A6564203A2C
:1011F0002067657374757265205354202E0D0A00A4
:1012000000000020840000204A4420004A4420209E
:10121000000000007265636F676E697A6564203A4A
:101220002067657374757265204A44202E0D0A008C
:10123000422020007265636F676E697A6564203AA8
:1012400020676573747572652042202E0D0A0000B8
:10125000466F7220446574656374696F6E206F66B3
:101260002031323334352E0D0A000000423A4465F5
:1012700074656374696F6E206F6620313233343564
:1012800000000000C8000020240000207265636F89
:10129000676E697A6564203A206765737475726554
:1012A0002025642E0D0A0000393A73686F772041BB
:1012B0004C4C20747261696E696E67206461746160
:1012C00000000000A80000204D65616E206F6620C0
:1012D00067657374757265202564203D2025662C32
:1012E00020556E6365727461696E7479203D2025A6
:1012F000660D0A00F4A008F05BFCFE4880690190CE
:101300000AF0CCF8CDE90401FB48806901900AF0AD
:10131000C5F8CDE90201DDE90401CDE900019DED4B
:10132000020B53EC102BF5A008F042FCF148C06909
:1013300001900AF0B3F8CDE90401EF48C0690190CB
:101340000AF0ACF8CDE90201DDE90401CDE90001C4
:101350009DED020B53EC102BF3A008F029FC0020AC
:10136000FC490880FCA010210B468C22CDE900101E
:10137000AA211E2006F0A7F810200090DE4890ED6C
:10138000050ADFEDF80A20EE200ABCEEC00A8DED5A
:10139000050A0323AA216420059A05F0DCFF10202A
:1013A0000090D54890ED060ADFEDEE0A20EE200A07
:1013B000BCEEC00A8DED050A0323AA21A020059AE0
:1013C00005F0C9FF10200090CB4890ED070ADFED33
:1013D000E50A20EE200ABCEEC00A8DED050A0323C3
:1013E000AA21DC20059A05F0B6FFDFA010210B46EC
:1013F0008C22CDE90010BE211E2006F064F81020DA
:101400000090BD4890ED000ADFEDD60A20EE200ADC
:10141000BCEEC00A8DED050A0323BE216420059AA7
:1014200005F099FF10200090B34890ED010ADFED20
:10143000CD0A20EE200ABCEEC00A8DED050A03237A
:10144000BE218C20059A05F086FF10200090AA4846
:1014500090ED020ADFEDC30A20EE200ABCEEC00ABE
:101460008DED050A0323BE21B420059A05F073FF14
:1014700010200090A04890ED030ADFEDBA0A20EE9C
:10148000200ABCEEC00A8DED050A0323BE21DC2034
:10149000059A05F060FF10200090974890ED040A2F
:1014A000DFEDB00A20EE200ABCEEC00A8DED050A81
:1014B0000323BE214FF48270059A05F04CFF72E0C1
:1014C00004230322DDE90D01FEF74EFF00286AD058
:1014D0000021A0480180A7A00C210B46B422CDE931
:1014E000001040F2B3111E2005F0EDFF002006F0C1
:1014F00034FEA54880ED000A002006F050FEA34807
:1015000080ED000A006809F0C9FFCDE904019E489A
:10151000006809F0C3FFCDE90201DDE90401CDE96E
:1015200000019DED020B53EC102B99A008F040FB3D
:101530009EA010210B466422CDE9001032211E200E
:1015400005F0C1FF1020032300908F4890ED000AA2
:10155000BCEEC00A10EE102A3221782005F0FBFE06
:1015600095A1102003466422CDE900013221AA2072
:1015700005F0A9FF102003230090844890ED000A95
:10158000BCEEC00A10EE102A3221D22005F0E3FE94
:101590008AA010210B466422CDE9001032214FF4BD
:1015A000827005F090FF00200FB000BD1CB54FF613
:1015B000FF7002F009F80020664908808048006842
:1015C00001280AD17FA010210B46D222CDE90010BC
:1015D0000A211E2005F077FF27E0814800680128D6
:1015E0000AD180A010210B46D222CDE900100A2199
:1015F0001E2005F068FF18E08148006801280AD124
:1016000080A010210B46D222CDE900100A211E2015
:1016100005F059FF09E082A010210B46D222CDE946
:1016200000100A211E2005F04EFF84A010210B4659
:10163000D222CDE900101E21084605F044FF85A006
:1016400010210B46D222CDE9001032211E2005F0D8
:101650003AFF1F203F49088081A010210B46D2226B
:10166000CDE9001046211E2005F02DFF80A010219D
:101670000B46D222CDE900105A211E2005F023FF8F
:101680007FA010210B46D222CDE900106E211E2032
:1016900005F019FF7EA010210B46D222CDE90010E3
:1016A00082211E2005F00FFF7DA010210B46D222C3
:1016B000CDE9001096211E2005F005FF00202549E8
:1016C000088025A01021F3E04D65616E206F662033
:1016D00067657374757265205354203D2025662C10
:1016E00020556E6365727461696E7479203D2025A2
:1016F000660D0A00A8000020000000204D65616E04
:10170000206F662067657374757265204A44203DBA
:101710002025662C20556E6365727461696E74793C
:10172000203D2025660D0A004D65616E206F662004
:1017300067657374757265202042203D2025662CF4
:1017400020556E6365727461696E7479203D202541
:10175000660D0A008400002053544A444220433A54
:10176000200000000000C842313233343520433AB3
:1017700020000000433A7265736574206361702035
:1017800076616C7565000000680000206C00002028
:1017900074656D7030203D2025662C5A74656D701F
:1017A00030203D2025662E200D0A0000433A746546
:1017B0006D70303D00000000205A3D002070660032
:1017C0002400002043757272656E74204D6F64654D
:1017D0003A20436F6D70656E736174696F6E0000BF
:1017E0002800002043757272656E74204D6F646529
:1017F0003A2044796E616D6963202020202000002A
:101800002C00002043757272656E74204D6F646504
:101810003A205069616E6F20202020202020000097
:1018200043757272656E74204D6F64653A204E6F19
:10183000726D616C2020202020200000477373749B
:10184000757265205265636F676E697A65643A20C8
:101850002000000054656D7020433A200000000015
:1018600043757272656E742043303A2000000000A8
:1018700043757272656E742043313A200000000097
:1018800043757272656E742043323A200000000086
:1018900043757272656E742043333A200000000075
:1018A00043757272656E742043343A200000000064
:1018B0000B46D222CDE90010AA211E2005F003FE1E
:1018C000AFF25C1010210B46D222CDE90010BE21F0
:1018D0001E2005F0F8FDFE48006850B9FDA010215B
:1018E0000B46D222CDE9001011461E2005F0EBFD7B
:1018F00028E0F748006801280AD1FC4810210B466F
:10190000D222CDE9001011461E2005F0DCFD19E0C1
:10191000EF480068401C58B9F448143010210B46B9
:10192000D222CDE9001011461E2005F0CCFD09E0C1
:10193000EFA010210B46D222CDE9001011461E2047
:1019400005F0C1FDAFF6443010210B46D222CDE99F
:101950000010E6211E2005F0B6FD4BF64040E84998
:101960000880E8A010210B46B422CDE90010FA212E
:101970001E2005F0A8FDAFF6B0300C210B46B422B6
:10198000CDE900104FF487711E2005F09CFD4FF447
:101990007840DB490880E3A00C210B46B422CDE956
:1019A000001040F21D111E2005F08DFDE3A00C215A
:1019B0000B46B422CDE900104FF496711E2005F0BD
:1019C00082FDE4A00C210B46B422CDE9001040F2C8
:1019D0003B111E2005F077FD4BF64040C8490880BA
:1019E000AFF278700C210B46B422CDE900104FF411
:1019F000A5711E2005F067FD4FF47840C0490880AE
:101A0000DAA00C210B46B422CDE9001040F25911A6
:101A10001E2005F058FDDBA00C210B46B422CDE9B9
:101A2000001051001E2005F04EFDDCA00C210B46DD
:101A3000B422CDE9001040F277111E2005F043FDDD
:101A4000DCA00C210B46B422CDE900104FF4C37189
:101A50001E2005F038FDDDA00C210B46B422CDE997
:101A6000001040F295111E2005F02DFDAFF2C87058
:101A70000C210B46C822CDE900104FF4D2711E2074
:101A800005F021FDAFF214300C210B46B422CDE954
:101A9000001040F2B3111E2005F015FD1CBD10B55D
:101AA0002DED068B82B0002095490880AFF25020C2
:101AB00010210B46D222CDE9001046211E2005F050
:101AC00002FDC848006809F0E9FC41EC1A0BB0EED1
:101AD0004A0AF0EE6A0A09F062F9B0EE409AF0EEB6
:101AE000609A9FEDC10B53EC102B51EC190B09F0D0
:101AF000D7FB41EC180B09F03FFB044610200323F1
:101B0000224646210090782005F025FCAFF258309F
:101B100010210B466422CDE900104621AA2005F0D1
:101B2000D2FCB348006809F0B9FC41EC1A0BB0EEE6
:101B30004A0AF0EE6A0A09F032F9B0EE409AF0EE85
:101B4000609A9FEDA90B53EC102B51EC190B09F087
:101B5000A7FB41EC180B09F00FFB044610200323F0
:101B6000224646210090D22005F0F5FBA1A01021CD
:101B70000B466422CDE900104621FA2005F0A3FCB3
:101B8000AFF2143010210B46D222CDE900105A21B9
:101B90001E2005F098FC9948006809F07FFC41EC94
:101BA0001A0BB0EE4A0AF0EE6A0A09F0F8F8B0EE45
:101BB000409AF0EE609A9FED8C0B53EC102B51EC99
:101BC000190B09F06DFB41EC180B09F0D5FA04462E
:101BD0001020032322465A210090782005F0BBFBF9
:101BE000AFF22C4010210B466422CDE900105A219F
:101BF000AA2005F068FC8248006809F04FFC41EC1F
:101C00001A0BB0EE4A0AF0EE6A0A09F0C8F8B0EE14
:101C1000409AF0EE609A9FED740B53EC102B51EC50
:101C2000190B09F03DFB41EC180B09F0A5FA04462D
:101C30001020032322465A210090D22005F08BFB6E
:101C40006CA010210B466422CDE900105A21FA2025
:101C500005F039FCAFF2D83010210B46D222CDE985
:101C600000106E211E2005F02EFC6648006809F069
:101C700015FC41EC1A0BB0EE4A0AF0EE6A0A09F0C4
:101C80008EF8B0EE409AF0EE609A9FED570B53EC51
:101C9000102B51EC190B09F003FB41EC180B09F068
:101CA0006BFA04461020032322466E210090782010
:101CB00005F051FBAFF2005010210B466422CDE934
:101CC00000106E21AA2005F0FEFB4F4800689DE041
:101CD00038000020547261696E205374617475730A
:101CE0003A20696E672E2E2E00000000F0060008D4
:101CF000547261696E205374617475733A200000E8
:101D0000840000202A2A2A2A2A2046756E637469D4
:101D10006F6E206F66204B657973202A2A2A2A2A43
:101D20002A0000002A3A676573747572652053545F
:101D300020554E747261696E65640000233A6765D0
:101D40007374757265204A4420554E747261696ED1
:101D500065640000443A67657374757265202042BB
:101D600020554E747261696E65640000313A676592
:101D70007374757265203120554E747261696E6599
:101D800064000000323A6765737475726520322012
:101D9000554E747261696E6564000000333A676580
:101DA0007374757265203320554E747261696E6567
:101DB00064000000343A67657374757265203420DE
:101DC000554E747261696E6564000000353A67654E
:101DD0007374757265203520554E747261696E6535
:101DE0006400000040000020000000000000594096
:101DF000540000202F313030207066004400002055
:101E000058000020480000205C00002009F046FB3C
:101E100041EC1A0BB0EE4A0AF0EE6A0A08F0BFFF76
:101E2000B0EE409AF0EE609A1FED110B53EC102BC0
:101E300051EC190B09F034FA41EC180B09F09CF93C
:101E400004461020032322466E210090D22005F084
:101E500082FAAFF2600010210B466422CDE9001037
:101E60006E21FA2005F02FFBAFF2DC5010210B465B
:101E7000D222CDE9001082211E2005F024FBF94872
:101E8000006809F00BFB41EC1A0BB0EE4A0AF0EEC9
:101E90006A0A08F084FFB0EE409AF0EE609A1FEDF7
:101EA0002E0B53EC102B51EC190B09F0F9F941EC06
:101EB000180B09F061F90446102003232246822101
:101EC0000090782005F047FAAFF2147010210B460D
:101ED0006422CDE900108221AA2005F0F4FAE2483C
:101EE000006809F0DBFA41EC1A0BB0EE4A0AF0EE9A
:101EF0006A0A08F054FFB0EE409AF0EE609A1FEDC7
:101F0000460B53EC102B51EC190B09F0C9F941ECBD
:101F1000180B09F031F904461020032322468221D0
:101F20000090D22005F017FAAFF2381010210B46BE
:101F30006422CDE900108221FA2005F0C4FAAFF244
:101F4000A06010210B46D222CDE9001096211E2060
:101F500005F0B9FAC548006809F0A0FA41EC1A0B7F
:101F6000B0EE4A0AF0EE6A0A08F019FFB0EE409AA5
:101F7000F0EE609A1FED640B53EC102B51EC190B33
:101F800009F08EF941EC180B09F0F6F80446102020
:101F90000323224696210090782005F0DCF9AFF269
:101FA000E87010210B466422CDE900109621AA208A
:101FB00005F089FAAE48006809F070FA41EC1A0B96
:101FC000B0EE4A0AF0EE6A0A08F0E9FEB0EE409A76
:101FD000F0EE609A1FED7C0B53EC102B51EC190BBB
:101FE00009F05EF941EC180B09F0C6F80446102020
:101FF0000323224696210090D22005F0ACF9AFF2DF
:102000000C2010210B466422CDE900109621FA2005
:1020100005F059FA02B0BDEC068B10BD2DED088B12
:1020200084B0012500200390029000244FF4A060AA
:1020300006F0C6FBA82006F00BFA4FF4165006F087
:1020400007FB05F073FA00F019FC06F0D1F801F077
:10205000EDFA05F03FFB00BF05F095FF0028FBD12E
:10206000002405E006F000F8322006F053FA641C64
:10207000052CF7DB7F48006810B901207E49086015
:102080007C480830006808B9012000E000207B4946
:10209000086078481030006808B9012000E000208E
:1020A0007749086077A010210B46D222CDE90010B5
:1020B00011461E2005F007FA77A007F079FD4FF4CE
:1020C0007A7006F027FA002006F047F8754880ED90
:1020D000000A002006F063F8734880ED000A0068EB
:1020E00009F0DCF941EC190B6E48006809F0D6F9EB
:1020F00041EC1A0B8DED009B53EC1A2BAFF67010D0
:1021000007F056FDFFF752FAAFF6601010210B46AC
:102110006422CDE9001032211E2005F0D4F91020F0
:10212000032300905F4890ED000ABCEEC00A10EE59
:10213000102A3221782005F00EF9AFF68410102114
:102140000B466422CDE900103221AA2005F0BBF92C
:10215000102003230090544890ED000ABCEEC00A02
:1021600010EE102A3221D22005F0F5F8AFF27830C7
:1021700010210B466422CDE9001032214FF4827009
:1021800005F0A1F9EEE105F02BFA48A010210B466D
:10219000D222CDE9001011461E2005F094F94948DD
:1021A00010210B46D222CDE900101E21084605F071
:1021B0008AF945A010210B466422CDE900101E21AA
:1021C0004FF4827005F07FF94BF640403F4908809C
:1021D000AFF668700C210B46B422CDE900104FF425
:1021E000A5711E2005F06FF9364820380C210B46EA
:1021F000B422CDE900104FF487711E2005F063F979
:10220000AFF65C700C210B46C822CDE900104FF4EC
:10221000D2711E2005F057F9AFF6A8200C210B460D
:10222000B422CDE9001040F2B3111E2005F04BF9A5
:1022300010480830006808B9012000E000200F496C
:1022400008600846006820B94FF0FF300390029004
:1022500049E00A480068012845D102A903A805F011
:1022600060FA3CE04C00002060000020500000209C
:102270006400002004824242240000202800002044
:102280002C000020496E6974205374617475733A90
:10229000204F4B2E00000000496E6974204F4B20E8
:1022A0000D0A2E00680000206C0000205472616945
:1022B0006E205374617475733A20202020202020F2
:1022C00020200000E80D00082020200084000020CD
:1022D000A54890ED000ADDE90210FEF717F9A348C2
:1022E00000680028F4D0002005F037FFB0EE408AE7
:1022F000002005F054FFF0EE408A9D4890ED000A62
:102300009C4880ED000A9C4890ED000A984880EDBA
:10231000000A9A4890ED000A974880ED000A984814
:1023200090ED000A954880ED000A8F4890ED000A74
:1023300038EE400A924880ED000A924890ED000A7B
:10234000914880ED000A914890ED000A8D4880ED9B
:10235000000A8F4890ED000A8C4880ED000A8D48F5
:1023600090ED000A8A4880ED000A8B4890ED000A43
:1023700038EEC00A874880ED000AFFF790FB8748D7
:10238000006802281DD1F0EE000AB0EE480A00EE07
:10239000E80A7548D0ED000A7F4890ED001AF0EE8B
:1023A000001A41EEC10A30EE600A10EE101A08461B
:1023B00009F074F841EC190B53EC192B78A007F0D5
:1023C000F7FB7648006801281ED1734890ED000A9B
:1023D00038EEC00A10EE101A084609F05FF841EC1A
:1023E000190B614890ED000A38EE400A10EE101A01
:1023F000084609F053F841EC1A0B8DED009B53ECA5
:102400001A2B6EA007F0D4FB64480068032812D191
:1024100018EE900A09F042F841EC190B18EE100A78
:1024200009F03CF841EC1A0B8DED009B53EC1A2B94
:102430006AA007F0BDFB59480068042832D156480D
:1024400090ED000A38EEC00A10EE101A084609F0A6
:1024500025F841EC1B0BB0EE4B0AF0EE6B0A08F0CE
:102460009EFCB0EE409AF0EE609A3F4890ED000A74
:1024700038EE400A10EE101A084609F00FF841EC49
:102480001B0BB0EE4B0AF0EE6B0A08F088FCB0EEC6
:1024900040AAF0EE60AA8DED009B53EC1A2B56A0DB
:1024A00007F086FB5D480068012831D12AE0002052
:1024B00005F053FEB0EE408A2C48006808B90120B0
:1024C00000E0002056490860274890ED000A38EEE9
:1024D000400A2B4880ED000A0846006801280CD10C
:1024E000274991ED000ADFED4F0A20EE200ABDEEEC
:1024F000C00A10EE100A05F097FEFFF7D0FA05208B
:1025000006F008F81948083000680028CFD025E008
:1025100002A903A805F005F920B943A0DDE90221CD
:1025200007F046FB012D19D14848006801280ED15B
:102530000D48D0ED000A184890ED001A70EEC10A5F
:10254000B0EE600ADDE90210FDF7E0FF06E00648A4
:1025500090ED000ADDE90210FDF7D8FF4FF4C870D6
:1025600005F0D8FF0FE60000680000200C82424210
:102570004C000020500000204800002044000020B3
:102580004000002060000020640000205C0000206B
:1025900058000020540000206C0000202000002083
:1025A000436F6D70656E736174696F6E2043482070
:1025B0003D2025332E3366200D0A00004348302D80
:1025C000203D2025332E33662C205A4348302D20C1
:1025D0003D2025332E3366200D0A0000434830206D
:1025E0007265733D25662C205A434830207265730E
:1025F0003D2566200D0A00004348302061627320AB
:102600003D25332E33662C205A43483020616273B7
:10261000203D25332E3366200D0A00002C000020BB
:10262000280000200000C8426B6579207072657335
:1026300073656420726F773D25642C20636F6C7521
:102640006D6E3D2564200D0A00000000240000206E
:10265000704700BFFEE700BFFEE700BFFEE700BF18
:10266000FEE7704770477047704700000CB50020C8
:10267000019000907648006840F48030744908600A
:1026800000BF7348006800F4003000900198401CBF
:102690000190009818B90198B0F5A04FF1D16C489D
:1026A000006800F4003010B10120009001E000202B
:1026B00000900098012846D165484030006840F0FD
:1026C00080506349403108606248006840F44040EF
:1026D000604908605E48083000685D49083108605C
:1026E0000846006840F4004008600846006840F46E
:1026F000A05008605848091F0860081F006840F093
:102700008070091F086000BF5148006800F0007029
:102710000028F9D040F20570504908604C48083054
:10272000006820F003004A49083108600846006844
:1027300040F00200086000BF45480830006800F023
:102740000C000828F8D10CBD10B54548006840F4CD
:102750007000434908603E48006840F001003C4971
:10276000086000203A4908310860394800683D494E
:102770000840374908603C48091D0860081F006888
:1027800020F48020091F0860002031490C310860C6
:10279000FFF76CFF4FF0006031498039086010BDD1
:1027A00070B500200022022300240221284D0835A4
:1027B0002D6805F00C0020B1042806D0082834D17B
:1027C00007E02A4D2A4E356033E02A4D284E356009
:1027D0002FE01F4D2D1D2D68C5F380541C4D2D1D60
:1027E0002D6805F03F0154B1224DB5FBF1F5184EAF
:1027F000361D3668C6F3881605FB06F209E01B4D48
:10280000B5FBF1F5124E361D3668C6F3881605FB8A
:1028100006F20F4D2D1D2D68C5F301456D1C6B0093
:10282000B2FBF3F5124E356003E0104D104E3560EB
:1028300000BF00BF064D08352D68C5F303150E4EC9
:10284000705D0B4D2D68C540094E356070BD0000B0
:10285000003802400070004008544007003C02402D
:1028600088ED00E0FFFFF6FE103000240024F400A5
:102870007000002000127A00740000201CB50121B5
:10288000202007F03FF82A20009000208DF8040057
:1028900003208DF8050001208DF8070069460248E5
:1028A00006F084F81CBD00000014024001B5BDF81C
:1028B00000000090BDF80000F849088008BD01B58F
:1028C000BDF800000090BDF80000F449891C0880A4
:1028D00008BD08B5F148801C00880090BDF80000D4
:1028E00008BDEE4A10804FF0D842A2F88010704721
:1028F00010B504462046FFF7D9FF052005F0C2FDBC
:10290000FFF7E7FF10BDE6480089E44908807047FB
:10291000E249891C0880704730B5014601F01F0468
:10292000C1F34513CA0AE50205EB43151544A8B2E5
:1029300030BD00BF0100A0F10102D0B2FAD1704752
:1029400030B504460D46D648808849F24131884268
:1029500005D0D348808845F21031884214D1D0493F
:102960004889FFF7A3FF2012FFF7A9FFE0B2FFF7A6
:10297000A6FFCB498889FFF799FF2812FFF79FFF31
:10298000E8B2FFF79CFFABE0C548808846F604013B
:1029900088421DD1C2488079012804D1C0480088EE
:1029A000401E001B84B2BE494889FFF77FFF2012FA
:1029B000FFF785FFE0B2FFF782FFB9498889FFF78B
:1029C00075FF2812FFF77BFFE8B2FFF778FF87E07B
:1029D000B348808841F66311884247D1B048807976
:1029E000A8B9AF480088401E001B84B2AC49488992
:1029F000FFF75CFF0020FFF762FF0020FFF75FFF9B
:102A00002012FFF75CFFE0B2FFF759FF16E0A44980
:102A10004889FFF74BFF2012FFF751FFE0B2FFF7A5
:102A20004EFF9F490988491EC1F30F20FFF747FF5A
:102A30009B490978491EC8B2FFF741FF9849888928
:102A4000FFF734FF2812FFF73AFFE8B2FFF737FF2E
:102A500093494988491EC1F30F20FFF730FF904981
:102A60008978491EC8B2FFF72AFF39E08C48808870
:102A700045F21051884220D189494889FFF716FF55
:102A80002012FFF71CFF86494989491C88B2FFF7CD
:102A90000DFFE0B2FFF713FF81498889FFF706FFBA
:102AA0002812FFF70CFF7E498989491C88B2FFF77D
:102AB000FDFEE8B2FFF703FF12E0794880790128B4
:102AC00004D177480088401E001B84B274494889AD
:102AD0002146FFF706FF724988892946FFF701FF63
:102AE00030BD2DE9F04105460E4600240027A046E2
:102AF0006B480088A84203DD69484088B04202DC88
:102B00000020BDE8F08131462846FFF719FF6448F0
:102B1000808849F24131884211D06148808846F668
:102B2000040188420BD05E48808845F2103188420B
:102B300005D05B48808841F66311884203D12E207E
:102B4000FFF7B4FE0DE05648808845F210518842E8
:102B500004D14FF43850FFF7A9FE02E02220FFF71E
:102B6000A5FE4F48808849F22031884202D10220D8
:102B7000FFF7DFFEFFF7ADFE04464948808841F6C7
:102B80006311884201D12046BBE70220FFF7D1FE46
:102B9000FFF79FFE04464248808849F2413188424F
:102BA0000BD03F48808845F21031884205D03C4820
:102BB000808845F2105188420AD10220FFF7B9FE01
:102BC000FFF787FE8046E7B24FF6FF7000EA07275F
:102BD0003348808849F22531884216D030488088B1
:102BE00044F23551884210D02D488088091F884210
:102BF0000BD02B4880884BF20551884205D02848DD
:102C000080884CF20551884201D1204679E724485A
:102C1000808849F2413188420BD02148808845F2B2
:102C20001031884205D01E48808845F210518842F4
:102C300007D1E012C002B91240EA411040EAE82090
:102C40005FE72046FFF768FE5BE700B51448808821
:102C500049F24131884211D01148808846F604017A
:102C600088420BD00E48808845F21031884205D04A
:102C70000B48808841F66311884203D12920FFF771
:102C800015FE14E00648808845F21051884209D1AB
:102C90004FF42450FFF70AFE09E000007E00006CAC
:102CA000F000002040F273110720FFF71AFE00BD6C
:102CB00000B5FD48808849F24131884211D0FA4878
:102CC000808846F6040188420BD0F748808845F298
:102CD0001031884205D0F448808841F6631188425B
:102CE00003D12820FFF7E2FD0EE0EF48808845F28F
:102CF0001051884204D14FF42050FFF7D7FD03E074
:102D000000210720FFF7EDFD00BDF0B505460024CA
:102D10000027E548807901280BD1E348808846F6F2
:102D20000401884205D0E048808841F6631188425A
:102D300008D1DD488079F0B9DB48808841F663111D
:102D4000884218D1082D15D2DFE805F00406080ADC
:102D50000C0E101206250DE007250BE0042509E0F6
:102D6000052507E0012505E0002503E0032501E036
:102D7000022500BF00BFCC48808849F2413188421B
:102D800017D0C948808846F60401884211D0C64849
:102D9000808845F2103188420BD0C348808845F2C4
:102DA0001051884205D0C048808841F6631188429E
:102DB0007ED1082D1CD2DFE805F00406090C0F12A5
:102DC000151800BF14E044F0800411E044F0400402
:102DD0000EE044F0C0040BE044F0200408E044F0AE
:102DE000600405E044F0A00402E044F0E00400BF09
:102DF00000BFAD48808845F21051884202D14FF49F
:102E0000585700E03627A848808845F2103188429C
:102E10000DD0A548808845F21051884207D0A248BD
:102E2000808841F66311884201D044F008049E482E
:102E3000808846F60401884201D144F0020421460C
:102E40003846FFF74EFD9848808841F66311884266
:102E50001DD004F0200068B1934800889249498849
:102E6000884214DA9048068840888F4908800846CE
:102E700046800CE08C4800888B494988884206DDF2
:102E800089480688408888490880084646808648E0
:102E9000808845F21051884254D183494889FFF710
:102EA00005FD0020FFF70BFD7F494989491C00E023
:102EB00077E088B2FFF7FAFC0020FFF700FD7A49BF
:102EC0004989891C88B2FFF7F1FC77490988491EB6
:102ED000C1F30F20FFF7F3FC73494989C91C88B27D
:102EE000FFF7E4FC70490978491EC8B2FFF7E7FC18
:102EF0006D498889FFF7DAFC0020FFF7E0FC6A499A
:102F00008989491C88B2FFF7D1FC0020FFF7D7FC64
:102F100065498989891C88B2FFF7C8FC62494988DC
:102F2000491EC1F30F20FFF7CAFC5F498989C91CFC
:102F300088B2FFF7BBFC5C498978491EC8B2FFF72D
:102F4000BEFC55E058494889FFF7B0FC0020FFF768
:102F5000B6FC0020FFF7B3FC53490988491EC1F3B2
:102F60000F20FFF7ACFC50490978491EC8B2FFF7A3
:102F7000A6FC4D498889FFF799FC0020FFF79FFCCC
:102F80000020FFF79CFC48494988491EC1F30F20E7
:102F9000FFF795FC44498978491EC8B2FFF78FFCBA
:102FA00026E0082D1CD2DFE805F004070A0D0F12F9
:102FB000151844F0300413E044F0100410E044F01D
:102FC00020040DE000BF0BE044F0380408E044F0BA
:102FD000280405E044F0180402E044F0080400BFAF
:102FE00000BF032744F4805421463846FFF779FC9C
:102FF000F0BD30B504460D4629462046FFF7A0FC3B
:10300000FFF781FC294800882949088030BD70B548
:1030100004460D4616462448808849F241318842CC
:1030200005D02148808845F21031884214D11E49CC
:103030004889FFF73BFC2012FFF741FCE0B2FFF7A5
:103040003EFC19498889FFF731FC2812FFF737FC4D
:10305000E8B2FFF734FC93E01348808845F2105142
:10306000884227D110494889FFF720FC2012FFF73A
:1030700026FC0D494989491C88B2FFF717FCE0B2CC
:10308000FFF71DFC08498889FFF710FC2812FFF79D
:1030900016FC05498989491C88B2FFF707FCE8B28C
:1030A000FFF70DFC6CE00000F00000208400002021
:1030B0008000006CFE48808841F66311884228D168
:1030C000FB48807920B9FA480088401E001B84B272
:1030D000F7494889FFF7EAFB2012FFF7F0FBE0B25F
:1030E000FFF7EDFB2012FFF7EAFBE0B2FFF7E7FB8B
:1030F000EF498889FFF7DAFB2812FFF7E0FBE8B217
:10310000FFF7DDFB2812FFF7DAFBE8B2FFF7D7FB8A
:1031100036E0E748808846F6040188421DD1E4483D
:103120008079012804D1E2480088401E001B84B247
:10313000DF494889FFF7BAFB2012FFF7C0FBE0B276
:10314000FFF7BDFBDA498889FFF7B0FB2812FFF7CC
:10315000B6FBE8B2FFF7B3FB12E0D548807901284F
:1031600004D1D3480088401E001B84B2D04948894E
:103170002146FFF7B6FBCE4988892946FFF7B1FB08
:10318000CB480089CB4908804FF0D840A0F8806038
:1031900070BD70B52DED048B0446BE20FFF786FB95
:1031A0000520FFF78CFB204608F02AF841EC190BAC
:1031B0009FEDC10B53EC102B08F072F841EC180B8B
:1031C00007F0DAFF85B22846FFF779FB0120FFF709
:1031D00076FBFF20FFF773FB0020FFF770FB00205A
:1031E000FFF76DFBBDEC048B70BD10B50446002CE1
:1031F00066D1AF498871F02008804FF4A0704880F4
:103200000846808849F2413188420BD0A84880881E
:1032100046F60401884205D0A548808845F2103161
:1032200088421AD12C20A24908812A2048812B20CB
:1032300088810846808846F60401884205D09C486B
:10324000808845F21031884206D14FF4A070984929
:1032500008804FF4F0704880A1E09548808845F2DE
:103260001051884210D14FF43050914908814FF4E9
:10327000285048814FF42C5088814FF4F07008801A
:103280004FF4487048808AE08948808841F663118D
:1032900088420DD12C20864908812B2048812A2084
:1032A00088814FF4F07008804FF44870488076E0D1
:1032B00022207F49088120204881212088816EE0DA
:1032C00001207B4988714FF4A0700880F02048806D
:1032D0000846808849F24131884205D07448808888
:1032E00045F21031884207D12C20714908812A20EB
:1032F00048812B2088813FE06D48808846F6040194
:10330000884207D12C206A4908812B2048812A2035
:10331000888131E06648808845F21051884210D19A
:103320004FF43050624908814FF4285048814FF4DF
:103330002C5088814FF4487008804FF4F07048801A
:103340001AE05B48808841F6631188420DD12C2039
:10335000574908812A2048812B2088814FF44870E2
:1033600008804FF4F070488006E022205049088120
:1033700021204881202088814D48808846F604011C
:10338000884205D04A48808845F21031884206D1EB
:103390004FF4F070464908804FF4A0704880002038
:1033A000FFF7B3FC10BD2DE9F04F86B004460D4683
:1033B0009046994604EB0800401E86B205EB0900D2
:1033C000401E87B23A48808849F24131884215D080
:1033D0003748808845F2103188420FD034488088C1
:1033E00046F60401884209D031488079012826D167
:1033F0002F48808841F66311884220D12C494889A2
:10340000FFF754FA2012FFF75AFAE0B2FFF757FA23
:103410003012FFF754FAF0B2FFF751FA24498889C5
:10342000FFF744FA2812FFF74AFAE8B2FFF747FA23
:103430003812FFF744FAF8B2FFF741FAC1E01C482E
:10344000808841F6631188423DD119480088A0EB7D
:103450000800001B84B205EB0900401E1FFA80F92A
:1034600013494889FFF722FA2012FFF728FAE0B241
:10347000FFF725FA04EB0801491EC1F30F20FFF7FF
:103480001EFA04EB0801491EC8B2FFF718FA0849F2
:103490008889FFF70BFA2812FFF711FAE8B2FFF755
:1034A0000EFA4FEA2920FFF70AFA09F0FF0007E0B9
:1034B000F00000207E00006C66666666666604406A
:1034C000FFF7FDF97DE0FE48808845F21051884203
:1034D00044D1FB494889FFF7E9F92012FFF7EFF9DA
:1034E000F7494989491C88B2FFF7E0F9E0B2FFF7D4
:1034F000E6F9F3494989891C88B2FFF7D7F93012F8
:10350000FFF7DDF9EE494989C91C88B2FFF7CEF90A
:10351000F0B2FFF7D4F9EA498889FFF7C7F9281212
:10352000FFF7CDF9E6498989491C88B2FFF7BEF952
:10353000E8B2FFF7C4F9E2498989891C88B2FFF72C
:10354000B5F93812FFF7BBF9DD498989C91C88B282
:10355000FFF7ACF9F8B2FFF7B2F932E0D84880795A
:1035600001280ED1AA46BB46D5480088801B401EC4
:1035700080B20190D2480088001B401E80B20090AB
:1035800003E0A246B34601950097502005905120D4
:103590000490522003905320029051460598FFF763
:1035A000A0F959460498FFF79CF901990398FFF791
:1035B00098F900990298FFF794F929462046FFF7F9
:1035C000BFF906B0BDE8F08F70B504460026BC48D0
:1035D000058840884543BA48808846F604018842F9
:1035E00016D1B7488079012812D10020B4498871DA
:1035F0002A2048812B20888100210846FFF7A0F966
:103600000120AF4988712B2048812A20888103E05E
:1036100000210846FFF794F9FFF775F9002602E04C
:10362000A8480480761CAE42FAD370BD00B5A1B0A4
:103630000020209001217A2006F064F9012108463B
:1036400006F098F94FF400401E9001208DF87C00A0
:1036500000208DF87E0002208DF87D0001208DF87D
:103660007F001EA9984805F0A1F94CF233701E9016
:1036700002208DF87C0000208DF87E0003208DF85C
:103680007D0001208DF87F001EA9904805F08EF97D
:103690004FF680701E9002208DF87C0000208DF87F
:1036A0007E0003208DF87D0001208DF87F001EA98B
:1036B000874805F07BF94FF480501E9002208DF86A
:1036C0007C0000208DF87E0003208DF87D00012015
:1036D0008DF87F001EA97F4805F068F94FF48050EF
:1036E0001E9002208DF87C0000208DF87E000320C3
:1036F0008DF87D0001208DF87F001EA9764805F029
:1037000055F90C220021714805F0DBF90C2201214A
:103710006E4805F0D6F90C2204216C4805F0D1F969
:103720000C220521694805F0CCF90C2208216748D4
:1037300005F0C7F90C220921644805F0C2F90C22F2
:103740000A21624805F0BDF90C220E215F4805F000
:10375000B8F90C220F215D4805F0B3F90C220721BE
:103760005B4805F0AEF90C220821594805F0A9F98B
:103770000C220921564805F0A4F90C220A215448CC
:1037800005F09FF90C220B21514805F09AF90C2203
:1037900011464F4805F095F90C220D214C4805F0D3
:1037A00090F90C220E214A4805F08BF90C220F21CA
:1037B000474805F086F90C221146464805F081F984
:1037C0000C221146444805F07CF90F200890002097
:1037D00009903C200A9000200B900C900D900E90C8
:1037E00009200190002002900820039000200490FE
:1037F00005900690079006200F90002010901190E1
:10380000102012900020139015901490169017908D
:103810004FF480501890002019904FF480401A9077
:1038200000201B9008A81C9001A81D900FA805F06F
:10383000C6FB0121062005F04DFC322004F06AFE93
:1038400001210020FFF74DF8322004F063FE002034
:10385000FFF74EF81A49888008468088FF280ADB5F
:10386000084680884FF6FF71884204D0144880884B
:10387000B0F5134F7ED1D320FFF718F8FFF729F8E2
:103880000F498880FFF725F80D498880FFF721F858
:103890000B498880084680884FF6FF7101EA0020B6
:1038A00007498880FFF715F80549898808430449C6
:1038B00088800846808849F2413188425AD00DE01C
:1038C000F00000208000006C00040240000C024068
:1038D000001002400014024000180240BF20FEF712
:1038E000E5FFFEF7F6FFFE498880FEF7F2FFFC4990
:1038F0008880FEF7EEFFFA498880FEF7EAFFF84974
:103900008880084680884FF6FF7101EA0020F4495C
:103910008880FEF7DEFFF24989880843F0498880F5
:103920000846808846F6040188427AD0D420FEF703
:10393000BDFFFEF7CEFFEA498880FEF7CAFFE849DF
:103940008880FEF7C6FFE6498880084680884FF6E3
:10395000FF7101EA0020E2498880FEF7BAFFE049E2
:1039600089880843DE4988800846808845F21031FE
:10397000884200E055E054D04FF45A40FEF796FFDD
:10398000FEF7A7FFD64988804FF45B40FEF78EFF15
:10399000FEF79FFFD2498880084680884FF6FF7166
:1039A00001EA0020CE4988804FF45C40FEF77EFF9C
:1039B000FEF78FFFCA4989880843C94988800846AD
:1039C0008088B0F5004F02D145F210508880C4487D
:1039D000808845F21051884223D0A120FEF766FF6F
:1039E000FEF777FFBE498880FEF773FFBC498880E9
:1039F000084680884FF6FF7101EA0020B8498880A8
:103A0000FEF767FFB64989880843B54988800846AC
:103A1000808845F26171884203D141F66310B04954
:103A20008880AF48808849F24131884211D0AC4843
:103A3000808845F2103188420BD0A948808845F231
:103A40001051884205D0A648808841F6631188420B
:103A50001DD1A448006820F00F004FF02041C1F8AC
:103A60001C010846D0F81C0120F47060C1F81C014C
:103A70000846D0F81C0140F00300C1F81C010846BC
:103A8000D0F81C0140F40070C1F81C0128E09448F3
:103A9000808846F60401884205D0914880884CF21F
:103AA000055188421CD18F48006820F00F004FF06C
:103AB0002041C1F81C010846D0F81C0120F47060B8
:103AC000C1F81C010846D0F81C0140F00A00C1F8FA
:103AD0001C010846D0F81C0140F44060C1F81C01EC
:103AE0007F48818880A006F063F87D48808849F28D
:103AF000413188427ED1CF20FEF7D8FE0020FEF76C
:103B0000DEFEC120FEF7DBFE3020FEF7D8FEED2002
:103B1000FEF7CCFE6420FEF7D2FE0320FEF7CFFEB8
:103B20001220FEF7CCFE8120FEF7C9FEE820FEF74A
:103B3000BDFE8520FEF7C3FE1020FEF7C0FE7A20F2
:103B4000FEF7BDFECB20FEF7B1FE3920FEF7B7FE33
:103B50002C20FEF7B4FE0020FEF7B1FE3420FEF765
:103B6000AEFE0220FEF7ABFEF720FEF79FFE202000
:103B7000FEF7A5FEEA20FEF799FE0020FEF79FFE65
:103B80000020FEF79CFEC020FEF790FE1B20FEF7F3
:103B900096FEC120FEF78AFE0120FEF790FEC520AA
:103BA000FEF784FE3020FEF78AFE3020FEF787FE07
:103BB000C720FEF77BFEB720FEF781FE3620FEF71A
:103BC00075FE4820FEF77BFE3A20FEF76FFE55207B
:103BD000FEF775FEB120FEF769FE0020FEF76FFECE
:103BE0001A20FEF76CFEB620FEF760FE0A20FEF7F4
:103BF00066FE00E0A5E0A220FEF761FEF220FEF7DF
:103C000055FE0020FEF75BFE2620FEF74FFE01204A
:103C1000FEF755FEE020FEF749FE0F20FEF74FFEAF
:103C20002A20FEF74CFE2820FEF749FE0820FEF76A
:103C300046FE0E20FEF743FE0820FEF740FE54200D
:103C4000FEF73DFEA920FEF73AFE4320FEF737FEC1
:103C50000A20FEF734FE0F20FEF731FE0020FEF7AB
:103C60002EFE0020FEF72BFE0020FEF728FE00208F
:103C7000FEF725FEE120FEF719FE0020FEF71FFEED
:103C80001520FEF71CFE1720FEF719FE0720FEF791
:103C900016FE1120FEF713FE0620FEF710FE2B2065
:103CA000FEF70DFE5620FEF70AFE3C20FEF707FE4B
:103CB0000520FEF704FE1020FEF701FE0F20FEF7A0
:103CC000FEFD3F20FEF7FBFD3F20FEF7F8FD0F2035
:103CD000FEF7F5FD2B20FEF7E9FD00200CE00000CB
:103CE000F00000201C0100A0204C43442049443A2D
:103CF00025780D0A00000000FEF7E1FD0020FEF728
:103D0000DEFD0120FEF7DBFD3F20FEF7D8FD2A2077
:103D1000FEF7CCFD0020FEF7D2FD0020FEF7CFFD20
:103D20000020FEF7CCFDEF20FEF7C9FD1120FEF7C5
:103D3000BDFD782004F0EEFB2920FEF7B7FD03F06F
:103D40001DB9FE48808846F6040188427ED11120C4
:103D5000FEF7ACFD142004F0DDFBD020FEF7A6FD3D
:103D60000720FEF7ACFD4220FEF7A9FD1D20FEF75F
:103D7000A6FDD120FEF79AFD0020FEF7A0FD1A2037
:103D8000FEF79DFD0920FEF79AFDD220FEF78EFD7D
:103D90000120FEF794FD2220FEF791FDC020FEF7E2
:103DA00085FD1020FEF78BFD3B20FEF788FD0020EF
:103DB000FEF785FD0220FEF782FD1120FEF77FFD54
:103DC000C520FEF773FD0320FEF779FDC820FEF73E
:103DD0006DFD0020FEF773FD2520FEF770FD21200C
:103DE000FEF76DFD0520FEF76AFD0020FEF767FD7A
:103DF0000A20FEF764FD6520FEF761FD2520FEF731
:103E00005EFD7720FEF75BFD5020FEF758FD0F208A
:103E1000FEF755FD0020FEF752FDF820FEF746FDA7
:103E20000120FEF74CFDFE20FEF740FD0020FEF7CE
:103E300046FD0220FEF743FD2020FEF737FD362029
:103E4000FEF734FD0820FEF73AFD00E02AE03A20B4
:103E5000FEF72CFD5520FEF732FD2B20FEF726FD48
:103E60000020FEF72CFD0020FEF729FD0120FEF7C3
:103E700026FD3F20FEF723FD2A20FEF717FD002038
:103E8000FEF71DFD0020FEF71AFD0120FEF717FDCD
:103E9000DF20FEF714FD782004F03CFB2920FEF71C
:103EA00005FD4CE7A548808845F21031884240F076
:103EB0007C87ED20FEF7FAFC0120FEF700FDFE20D6
:103EC000FEF7FDFCEE20FEF7F1FCDE20FEF7F7FC2E
:103ED0002120FEF7F4FCF120FEF7E8FC0120FEF7BC
:103EE000EEFCDF20FEF7E2FC1020FEF7E8FCC42029
:103EF000FEF7DCFC8F20FEF7E2FCC620FEF7D6FCC6
:103F00000020FEF7DCFCE220FEF7D9FCE220FEF701
:103F1000D6FCE220FEF7D3FCBF20FEF7C7FCAA20A8
:103F2000FEF7CDFCB020FEF7C1FC0D20FEF7C7FC6C
:103F30000020FEF7C4FC0D20FEF7C1FC0020FEF7B8
:103F4000BEFC1120FEF7BBFC0020FEF7B8FC1920D8
:103F5000FEF7B5FC0020FEF7B2FC2120FEF7AFFC17
:103F60000020FEF7ACFC2D20FEF7A9FC0020FEF798
:103F7000A6FC3D20FEF7A3FC0020FEF7A0FC5D2080
:103F8000FEF79DFC0020FEF79AFC5D20FEF797FCF3
:103F90000020FEF794FCB120FEF788FC8020FEF79D
:103FA0008EFC0020FEF78BFC8B20FEF788FC0020A7
:103FB000FEF785FC9620FEF782FC0020FEF77FFCD2
:103FC000B220FEF773FC0020FEF779FC0020FEF71C
:103FD00076FC0220FEF773FC0020FEF770FC032045
:103FE000FEF76DFC0020FEF76AFCB320FEF75EFCD6
:103FF0000020FEF764FC0020FEF761FC0020FEF7C5
:104000005EFC0020FEF75BFC0020FEF758FC002061
:10401000FEF755FC0020FEF752FC0020FEF74FFC97
:104020000020FEF74CFC0020FEF749FC0020FEF7C4
:1040300046FC0020FEF743FC0020FEF740FC002079
:10404000FEF73DFC0020FEF73AFC0020FEF737FCAF
:104050000020FEF734FC0020FEF731FC0020FEF7C4
:104060002EFC0020FEF72BFC0020FEF728FC002091
:10407000FEF725FC0020FEF722FC0020FEF71FFCC7
:10408000B420FEF713FC8B20FEF719FC0020FEF78E
:1040900016FC9620FEF713FC0020FEF710FCA12072
:1040A000FEF70DFC0020FEF70AFCB520FEF7FEFB34
:1040B0000220FEF704FC0020FEF701FC0320FEF7BF
:1040C000FEFB0020FEF7FBFB0420FEF7F8FB0020C0
:1040D000FEF7F5FBB620FEF7E9FB0020FEF7EFFB4D
:1040E0000020FEF7ECFBB720FEF7E0FB0020FEF718
:1040F000E6FB0020FEF7E3FB3F20FEF7E0FB00209D
:10410000FEF7DDFB5E20FEF7DAFB0020FEF7D7FBB3
:104110006420FEF7D4FB0020FEF7D1FB8C20FEF7D5
:10412000CEFB0020FEF7CBFBAC20FEF7C8FB002047
:10413000FEF7C5FBDC20FEF7C2FB01E0F00000202B
:104140000020FEF7BCFB7020FEF7B9FB0020FEF755
:10415000B6FB9020FEF7B3FB0020FEF7B0FBEB2090
:10416000FEF7ADFB0020FEF7AAFBDC20FEF7A7FB65
:104170000020FEF7A4FBB820FEF798FB0020FEF716
:104180009EFB0020FEF79BFB0020FEF798FB002023
:10419000FEF795FB0020FEF792FB0020FEF78FFB59
:1041A0000020FEF78CFB0020FEF789FBBA20FEF70B
:1041B0007DFB2420FEF783FB0020FEF780FB002020
:1041C000FEF77DFB0020FEF77AFBC120FEF76EFBB9
:1041D0002020FEF774FB0020FEF771FB5420FEF751
:1041E0006EFB0020FEF76BFBFF20FEF768FB002054
:1041F000FEF765FBC220FEF759FB0A20FEF75FFBC6
:104200000020FEF75CFB0420FEF759FB0020FEF7C0
:1042100056FBC320FEF74AFB3C20FEF750FB002074
:10422000FEF74DFB3A20FEF74AFB0020FEF747FB66
:104230003920FEF744FB0020FEF741FB3720FEF754
:104240003EFB0020FEF73BFB3C20FEF738FB002046
:10425000FEF735FB3620FEF732FB0020FEF72FFB82
:104260003220FEF72CFB0020FEF729FB2F20FEF763
:1042700026FB0020FEF723FB2C20FEF720FB00206E
:10428000FEF71DFB2920FEF71AFB0020FEF717FBA7
:104290002620FEF714FB0020FEF711FB2420FEF77A
:1042A0000EFB0020FEF70BFB2420FEF708FB00208E
:1042B000FEF705FB2320FEF702FB0020FEF7FFFAC6
:1042C0003C20FEF7FCFA0020FEF7F9FA3620FEF754
:1042D000F6FA0020FEF7F3FA3220FEF7F0FA00209B
:1042E000FEF7EDFA2F20FEF7EAFA0020FEF7E7FAD4
:1042F0002C20FEF7E4FA0020FEF7E1FA2920FEF771
:10430000DEFA0020FEF7DBFA2620FEF7D8FA0020BE
:10431000FEF7D5FA2420FEF7D2FA0020FEF7CFFAF6
:104320002420FEF7CCFA0020FEF7C9FA2320FEF77E
:10433000C6FA0020FEF7C3FAC420FEF7B7FA6220DF
:10434000FEF7BDFA0020FEF7BAFA0520FEF7B7FA2D
:104350000020FEF7B4FA8420FEF7B1FA0020FEF741
:10436000AEFAF020FEF7ABFA0020FEF7A8FA18200C
:10437000FEF7A5FA0020FEF7A2FAA420FEF79FFAA6
:104380000020FEF79CFA1820FEF799FA0020FEF7AD
:1043900096FA5020FEF793FA0020FEF790FA0C20D0
:1043A000FEF78DFA0020FEF78AFA1720FEF787FA4B
:1043B0000020FEF784FA9520FEF781FA0020FEF730
:1043C0007EFAF320FEF77BFA0020FEF778FAE6206B
:1043D000FEF775FA0020FEF772FAC520FEF766FABE
:1043E0003220FEF76CFA0020FEF769FA4420FEF74F
:1043F00066FA0020FEF763FA6520FEF760FA0020F7
:10440000FEF75DFA7620FEF75AFA0020FEF757FA1B
:104410008820FEF754FA0020FEF751FAC620FEF776
:1044200045FA2020FEF74BFA0020FEF748FA172045
:10443000FEF745FA0020FEF742FA0120FEF73FFAA8
:104440000020FEF73CFAC720FEF730FA0020FEF706
:1044500036FA0020FEF733FA0020FEF730FA00208B
:10446000FEF72DFAC820FEF721FA0020FEF727FA02
:104470000020FEF724FA0020FEF721FA0020FEF7C4
:104480001EFAC920FEF712FA0020FEF718FA0020E3
:10449000FEF715FA0020FEF712FA0020FEF70FFAD9
:1044A0000020FEF70CFA0020FEF709FA0020FEF7C4
:1044B00006FA0020FEF703FA0020FEF700FA0020BB
:1044C000FEF7FDF90020FEF7FAF90020FEF7F7F9F4
:1044D0000020FEF7F4F90020FEF7F1F90020FEF7C6
:1044E000EEF90020FEF7EBF9E020FEF7DFF91620E9
:1044F000FEF7E5F90020FEF7E2F91C20FEF7DFF9F0
:104500000020FEF7DCF92120FEF7D9F90020FEF7A4
:10451000D6F93620FEF7D3F90020FEF7D0F9462071
:10452000FEF7CDF90020FEF7CAF95220FEF7C7F9D1
:104530000020FEF7C4F96420FEF7C1F90020FEF761
:10454000BEF97A20FEF7BBF90020FEF7B8F98B2000
:10455000FEF7B5F90020FEF7B2F99920FEF7AFF9A2
:104560000020FEF7ACF9A820FEF7A9F90020FEF71D
:10457000A6F9B920FEF7A3F90020FEF7A0F9C420A0
:10458000FEF79DF90020FEF79AF9CA20FEF797F989
:104590000020FEF794F9D220FEF791F90020FEF7F3
:1045A0008EF9D920FEF78BF90020FEF788F9E0207C
:1045B000FEF785F90020FEF782F9F320FEF77FF978
:1045C0000020FEF77CF9E120FEF770F91620FEF7D7
:1045D00076F90020FEF773F91C20FEF770F9002031
:1045E000FEF76DF92220FEF76AF90020FEF767F961
:1045F0003620FEF764F90020FEF761F94520FEF74A
:104600005EF90020FEF75BF95220FEF758F9002012
:10461000FEF755F96420FEF752F90020FEF74FF936
:104620007A20FEF74CF90020FEF749F98B20FEF7BF
:1046300046F90020FEF743F99920FEF740F90020E3
:10464000FEF73DF9A820FEF73AF90020FEF737F90A
:10465000B920FEF734F90020FEF731F9C420FEF747
:104660002EF90020FEF72BF9CA20FEF728F90020CA
:10467000FEF725F9D220FEF722F90020FEF71FF9F8
:10468000D820FEF71CF90020FEF719F9E020FEF70C
:1046900016F90020FEF713F9F320FEF710F90020B9
:1046A000FEF70DF9E220FEF701F90520FEF707F904
:1046B0000020FEF704F90B20FEF701F90020FEF7B9
:1046C000FEF81B20FEF7FBF80020FEF7F8F8342078
:1046D000FEF7F5F80020FEF7F2F84420FEF7EFF8B9
:1046E0000020FEF7ECF84F20FEF7E9F80020FEF777
:1046F000E6F86120FEF7E3F80020FEF7E0F8792005
:10470000FEF7DDF80020FEF7DAF88820FEF7D7F88C
:104710000020FEF7D4F89720FEF7D1F80020FEF72E
:10472000CEF8A620FEF7CBF80020FEF7C8F8B72099
:10473000FEF7C5F80020FEF7C2F8C220FEF7BFF86A
:104740000020FEF7BCF8C720FEF7B9F80020FEF7FE
:10475000B6F8D120FEF7B3F80020FEF7B0F8D62067
:10476000FEF7ADF80020FEF7AAF8DD20FEF7A7F867
:104770000020FEF7A4F8F320FEF7A1F80020FEF7D2
:104780009EF8E320FEF792F80520FEF798F8002047
:10479000FEF795F80A20FEF792F80020FEF78FF852
:1047A0001C20FEF78CF80020FEF789F83320FEF776
:1047B00086F80020FEF783F84420FEF780F80020FA
:1047C000FEF77DF85020FEF77AF80020FEF777F824
:1047D0006220FEF774F80020FEF771F87820FEF7EB
:1047E0006EF80020FEF76BF88820FEF768F80020CE
:1047F000FEF765F89720FEF762F80020FEF75FF8F5
:10480000A620FEF75CF80020FEF759F8B720FEF767
:1048100056F80020FEF753F8C220FEF750F80020AB
:10482000FEF74DF8C720FEF74AF80020FEF747F8DC
:10483000D120FEF744F80020FEF741F8D520FEF71E
:104840003EF80020FEF73BF8DD20FEF738F80020A8
:10485000FEF735F8F320FEF732F80020FEF72FF8C8
:10486000E420FEF723F80120FEF729F80020FEF7E8
:1048700026F80120FEF723F80020FEF720F802209A
:10488000FEF71DF80020FEF71AF82A20FEF717F8A9
:104890000020FEF714F83C20FEF711F80020FEF788
:1048A0000EF84B20FEF70BF80020FEF708F85D200D
:1048B000FEF705F80020FEF702F87420FDF7FFFF71
:1048C0000020FDF7FCFF8420FDF7F9FF0020FDF735
:1048D000F6FF9320FDF7F3FF0020FDF7F0FFA22085
:1048E000FDF7EDFF0020FDF7EAFFB320FDF7E7FF3E
:1048F0000020FDF7E4FFBE20FDF7E1FF0020FDF7FB
:10490000DEFFC420FDF7DBFF0020FDF7D8FFCD2040
:10491000FDF7D5FF0020FDF7D2FFD320FDF7CFFF35
:104920000020FDF7CCFFDD20FDF7C9FF0020FDF7DB
:10493000C6FFF320FDF7C3FF0020FDF7C0FFE52011
:10494000FDF7B4FF0020FDF7BAFF0020FDF7B7FF29
:104950000020FDF7B4FF0020FDF7B1FF0220FDF7B6
:10496000AEFF0020FDF7ABFF2920FDF7A8FF0020D8
:10497000FDF7A5FF3C20FDF7A2FF0020FDF79FFFFC
:104980004B20FDF79CFF0020FDF799FF5D20FDF710
:1049900096FF0020FDF793FF7420FDF790FF0020A5
:1049A000FDF78DFF8420FDF78AFF0020FDF787FFCC
:1049B0009320FDF784FF0020FDF781FFA220FDF783
:1049C0007EFF0020FDF77BFFB320FDF778FF00207E
:1049D000FDF775FFBE20FDF772FF0020FDF76FFFAA
:1049E000C420FDF76CFF0020FDF769FFCD20FDF727
:1049F00066FF0020FDF763FFD320FDF760FF002076
:104A0000FDF75DFFDC20FDF75AFF0020FDF757FFA3
:104A1000F320FDF754FF0020FDF751FFE620FDF7DE
:104A200045FF1120FDF74BFF0020FDF748FF342024
:104A3000FDF745FF0020FDF742FF5620FDF73FFF41
:104A40000020FDF73CFF7620FDF739FF0020FDF741
:104A500036FF7720FDF733FF0020FDF730FF66209B
:104A6000FDF72DFF0020FDF72AFF8820FDF727FF27
:104A70000020FDF724FF9920FDF721FF0020FDF71E
:104A80001EFFBB20FDF71BFF0020FDF718FF99203C
:104A9000FDF715FF0020FDF712FF6620FDF70FFF61
:104AA0000020FDF70CFF5520FDF709FF0020FDF762
:104AB00006FF5520FDF703FF0020FDF700FF45200E
:104AC000FDF7FDFE0020FDF7FAFE4320FDF7F7FE9F
:104AD0000020FDF7F4FE4420FDF7F1FE0020FDF775
:104AE000EEFEE720FDF7E2FE3220FDF7E8FE0020B3
:104AF000FDF7E5FE5520FDF7E2FE0020FDF7DFFEA5
:104B00007620FDF7DCFE0020FDF7D9FE6620FDF7DC
:104B1000D6FE0020FDF7D3FE6720FDF7D0FE002073
:104B2000FDF7CDFE6720FDF7CAFE0020FDF7C7FEAA
:104B30008720FDF7C4FE0020FDF7C1FE9920FDF798
:104B4000BEFE0020FDF7BBFEBB20FDF7B8FE002037
:104B5000FDF7B5FE9920FDF7B2FE0020FDF7AFFE90
:104B60007720FDF7ACFE0020FDF7A9FE4420FDF7FD
:104B7000A6FE0020FDF7A3FE5620FDF7A0FE0020B4
:104B8000FDF79DFE2320FDF79AFE0020FDF797FE1E
:104B90003320FDF794FE0020FDF791FE4520FDF740
:104BA0008EFE0020FDF78BFEE820FDF77FFE002043
:104BB000FDF785FE0020FDF782FE9920FDF77FFEC0
:104BC0000020FDF77CFE8720FDF779FE0020FDF731
:104BD00076FE8820FDF773FE0020FDF770FE77203B
:104BE000FDF76DFE0020FDF76AFE6620FDF767FE0B
:104BF0000020FDF764FE8820FDF761FE0020FDF730
:104C00005EFEAA20FDF75BFE0020FDF758FEBB20EC
:104C1000FDF755FE0020FDF752FE9920FDF74FFEEF
:104C20000020FDF74CFE6620FDF749FE0020FDF751
:104C300046FE5520FDF743FE0020FDF740FE5520BF
:104C4000FDF73DFE0020FDF73AFE4420FDF737FE5C
:104C50000020FDF734FE4420FDF731FE0020FDF773
:104C60002EFE5520FDF72BFE0020FDF728FEE92043
:104C7000FDF71CFEAA20FDF722FE0020FDF71FFE17
:104C80000020FDF71CFE0020FDF719FE0020FDF7B7
:104C90000DFEAA20FDF713FECF20FDF707FE002032
:104CA000FDF70DFE0020FDF70AFE0020FDF707FED0
:104CB0000020FDF704FE0020FDF701FE0020FDF7B7
:104CC000FEFD0020FDF7FBFD0020FDF7F8FD0020B4
:104CD000FDF7F5FD0020FDF7F2FD0020FDF7EFFDEB
:104CE0000020FDF7ECFD0020FDF7E9FD0020FDF7B9
:104CF000E6FD0020FDF7E3FD0020FDF7E0FD0020CC
:104D0000FDF7DDFDF020FDF7D1FD0020FDF7D7FD1B
:104D10005020FDF7D4FD0020FDF7D1FD0020FDF768
:104D2000CEFD0020FDF7CBFDF320FDF7BFFD0020F9
:104D3000FDF7C5FDF920FDF7B9FD0620FDF7BFFD24
:104D40001020FDF7BCFD2920FDF7B9FD0020FDF77F
:104D5000B6FD3A20FDF7AAFD5520FDF7B0FD112064
:104D6000FDF7A4FD642003F0D5FB2920FDF79EFD8F
:104D70003520FDF79BFD0020FDF7A1FD5120FDF73B
:104D800095FDFF20FDF79BFD5320FDF78FFD2C20A7
:104D9000FDF795FD5520FDF789FD8220FDF78FFD7C
:104DA0002C20FDF783FD02F0E9B8FE48808845F22B
:104DB000105188427ED155214FF47040FDF791FD8E
:104DC000AA214FF20100FDF78CFD52214FF20200A3
:104DD000FDF787FD08214FF20300FDF782FD012159
:104DE0004FF20400FDF77DFD0D214FF43040FDF73B
:104DF00078FD0D214BF20100FDF773FD0D214BF203
:104E00000200FDF76EFD34214FF43640FDF769FDD9
:104E100034214BF20160FDF764FD34214BF2026056
:104E2000FDF75FFD0D214FF43140FDF75AFD0D21D7
:104E30004BF20110FDF755FD0D214BF20210FDF76D
:104E400050FD34214FF43740FDF74BFD34214BF238
:104E50000170FDF746FD34214BF20270FDF741FD74
:104E600000214FF43240FDF73CFD00214BF20120C0
:104E7000FDF737FD00214BF20220FDF732FD242122
:104E80004FF43840FDF72DFD24214BF60100FDF7CE
:104E900028FD24214BF60200FDF723FD01214FF4EC
:104EA0003F40FDF71EFD0F214FF43340FDF719FD84
:104EB0000F2100E0FEE34BF20130FDF712FD0F2160
:104EC0004BF20230FDF70DFD34214FF43940FDF770
:104ED00008FD34214BF60110FDF703FD34214BF69C
:104EE0000210FDF7FEFC08214FF43540FDF7F9FCF8
:104EF00008214BF20150FDF7F4FC08214BF202505F
:104F0000FDF7EFFC03214FF44240FDF7EAFC2421BA
:104F10004FF43A40FDF7E5FC24214BF60120FDF764
:104F2000E0FC24214BF60220FDF7DBFC00214FF4CE
:104F30003C40FDF7D6FC78214BF60140FDF7D1FC53
:104F400000214BF60240FDF7CCFC00214FF43D4020
:104F5000FDF7C7FC78214BF60150FDF7C2FC00219C
:104F60004BF60250FDF7BDFC00214FF43E40FDF72B
:104F7000B8FC64214BF60160FDF7B3FC00214FF44F
:104F80005140FDF7AEFC33214DF20110FDF7A9FCB5
:104F900000214DF20210FDF7A4FC34214DF2031064
:104FA000FDF79FFC00214DF20410FDF79AFC3A2119
:104FB0004DF20510FDF795FC00214DF20610FDF7AE
:104FC00090FC4A214DF20710FDF78BFC00214DF2B9
:104FD0000810FDF786FC5C214DF20910FDF781FCFD
:104FE00000214DF20A10FDF77CFC81214DF20B10DF
:104FF000FDF777FC00214DF20C10FDF772FCA621A5
:105000004DF20D10FDF76DFC00214DF20E10FDF775
:1050100068FCE5214DF20F10FDF763FC01214DF214
:105020001010FDF75EFC13214DF21110FDF759FC35
:1050300001214DF21210FDF754FC54214DF21310D2
:10504000FDF74FFC01214DF21410FDF74AFC8221BF
:105050004DF21510FDF745FC01214DF21610FDF73C
:1050600040FCCA214DF21710FDF73BFC02214DF226
:105070001810FDF736FC00214DF21910FDF731FC38
:1050800002214DF21A10FDF72CFC01214DF21B10EC
:10509000FDF727FC02214DF21C10FDF722FC342104
:1050A0004DF21D10FDF71DFC02214DF21E10FDF703
:1050B00018FC67214DF21F10FDF713FC02214DF281
:1050C0002010FDF70EFC84214DF22110FDF709FCA4
:1050D00002214DF22210FDF704FCA4214DF2231011
:1050E000FDF7FFFB02214DF22410FDF7FAFBB7217B
:1050F0004DF22510FDF7F5FB02214DF22610FDF7CC
:10510000F0FBCF214DF22710FDF7EBFB02214DF212
:105110002810FDF7E6FBDE214DF22910FDF7E1FB3B
:1051200002214DF22A10FDF7DCFBF2214DF22B108B
:10513000FDF7D7FB02214DF22C10FDF7D2FBFE212B
:105140004DF22D10FDF7CDFB03214DF22E10FDF792
:10515000C8FB10214DF22F10FDF7C3FB03214DF2C8
:105160003010FDF7BEFB33214DF23110FDF7B9FBD6
:1051700003214DF23210FDF7B4FB6D214DF23310D7
:10518000FDF7AFFB00214FF45240FDF7AAFB33219E
:105190004DF20120FDF7A5FB00214DF20220FDF7A5
:1051A000A0FB01E0F000002034214DF20320FDF7C8
:1051B00098FB00214DF20420FDF793FB3A214DF2BC
:1051C0000520FDF78EFB00214DF20620FDF789FB3F
:1051D0004A214DF20720FDF784FB00214DF2082003
:1051E000FDF77FFB5C214DF20920FDF77AFB0021E2
:1051F0004DF20A20FDF775FB81214DF20B20FDF7E2
:1052000070FB00214DF20C20FDF76BFBA6214DF247
:105210000D20FDF766FB00214DF20E20FDF761FB2E
:10522000E5214DF20F20FDF75CFB01214DF210202E
:10523000FDF757FB13214DF21120FDF752FB012121
:105240004DF21220FDF74DFB54214DF21320FDF7D6
:1052500048FB01214DF21420FDF743FB82214DF262
:105260001520FDF73EFB01214DF21620FDF739FB1D
:10527000CA214DF21720FDF734FB02214DF2182010
:10528000FDF72FFB00214DF21920FDF72AFB02212B
:105290004DF21A20FDF725FB01214DF21B20FDF7F1
:1052A00020FB02214DF21C20FDF71BFB34214DF2A7
:1052B0001D20FDF716FB02214DF21E20FDF711FB0C
:1052C00067214DF21F20FDF70CFB02214DF220203B
:1052D000FDF707FB84214DF22120FDF702FB02219F
:1052E0004DF22220FDF7FDFAA4214DF22320FDF717
:1052F000F8FA02214DF22420FDF7F3FAB7214DF21E
:105300002520FDF7EEFA02214DF22620FDF7E9FAFD
:10531000CF214DF22720FDF7E4FA02214DF228209B
:10532000FDF7DFFADE214DF22920FDF7DAFA02213E
:105330004DF22A20FDF7D5FAF2214DF22B20FDF790
:10534000D0FA02214DF22C20FDF7CBFAFE214DF2CE
:105350002D20FDF7C6FA03214DF22E20FDF7C1FAEC
:1053600010214DF22F20FDF7BCFA03214DF2302021
:10537000FDF7B7FA33214DF23120FDF7B2FA0321E0
:105380004DF23220FDF7ADFA6D214DF23320FDF7DD
:10539000A8FA00214FF45340FDF7A3FA33214DF250
:1053A0000130FDF79EFA00214DF20230FDF799FA27
:1053B00034214DF20330FDF794FA00214DF2043010
:1053C000FDF78FFA3A214DF20530FDF78AFA0021F8
:1053D0004DF20630FDF785FA4A214DF20730FDF710
:1053E00080FA00214DF20830FDF77BFA5C214DF286
:1053F0000930FDF776FA00214DF20A30FDF771FA17
:1054000081214DF20B30FDF76CFA00214DF20C308A
:10541000FDF767FAA6214DF20D30FDF762FA002183
:105420004DF20E30FDF75DFAE5214DF20F30FDF73C
:1054300058FA01214DF21030FDF753FA13214DF2C5
:105440001130FDF74EFA01214DF21230FDF749FA05
:1054500054214DF21330FDF744FA01214DF214307E
:10546000FDF73FFA82214DF21530FDF73AFA01219E
:105470004DF21630FDF735FACA214DF21730FDF71F
:1054800030FA02214DF21830FDF72BFA00214DF2CF
:105490001930FDF726FA02214DF21A30FDF721FAF4
:1054A00001214DF21B30FDF71CFA02214DF21C3098
:1054B000FDF717FA34214DF21D30FDF712FA0221E3
:1054C0004DF21E30FDF70DFA67214DF21F30FDF74A
:1054D00008FA02214DF22030FDF703FA84214DF243
:1054E0002130FDF7FEF902214DF22230FDF7F9F9E6
:1054F000A4214DF22330FDF7F4F902214DF22430BE
:10550000FDF7EFF9B7214DF22530FDF7EAF9022159
:105510004DF22630FDF7E5F9CF214DF22730FDF7AA
:10552000E0F902214DF22830FDF7DBF9DE214DF2E2
:105530002930FDF7D6F902214DF22A30FDF7D1F9D5
:10554000F2214DF22B30FDF7CCF902214DF22C3037
:10555000FDF7C7F9FE214DF22D30FDF7C2F9032109
:105560004DF22E30FDF7BDF910214DF22F30FDF731
:10557000B8F903214DF23030FDF7B3F933214DF284
:105580003130FDF7AEF903214DF23230FDF7A9F9C4
:105590006D214DF23330FDF7A4F900214FF4544052
:1055A000FDF79FF933214DF20140FDF79AF90021F3
:1055B0004DF20240FDF795F934214DF20340FDF71D
:1055C00090F900214DF20440FDF78BF93A214DF29C
:1055D0000540FDF786F900214DF20640FDF781F9FF
:1055E0004A214DF20740FDF77CF900214DF20840B9
:1055F000FDF777F95C214DF20940FDF772F90021C2
:105600004DF20A40FDF76DF981214DF20B40FDF797
:1056100068F900214DF20C40FDF763F9A6214DF227
:105620000D40FDF75EF900214DF20E40FDF759F9EE
:10563000E5214DF20F40FDF754F901214DF21040E4
:10564000FDF74FF913214DF21140FDF74AF9012101
:105650004DF21240FDF745F954214DF21340FDF78C
:1056600040F901214DF21440FDF73BF982214DF242
:105670001540FDF736F901214DF21640FDF731F9DD
:10568000CA214DF21740FDF72CF902214DF21840C6
:10569000FDF727F900214DF21940FDF722F902210B
:1056A0004DF21A40FDF71DF901214DF21B40FDF7A7
:1056B00018F900E004E302214DF21C40FDF711F956
:1056C00034214DF21D40FDF70CF902214DF21E4030
:1056D000FDF707F967214DF21F40FDF702F902219E
:1056E0004DF22040FDF7FDF884214DF22140FDF7F9
:1056F000F8F802214DF22240FDF7F3F8A4214DF213
:105700002340FDF7EEF802214DF22440FDF7E9F8C1
:10571000B7214DF22540FDF7E4F802214DF2264075
:10572000FDF7DFF8CF214DF22740FDF7DAF802212F
:105730004DF22840FDF7D5F8DE214DF22940FDF766
:10574000D0F802214DF22A40FDF7CBF8F2214DF2BC
:105750002B40FDF7C6F802214DF22C40FDF7C1F8B1
:10576000FE214DF22D40FDF7BCF803214DF22E40F5
:10577000FDF7B7F810214DF22F40FDF7B2F80321E5
:105780004DF23040FDF7ADF833214DF23140FDF7D9
:10579000A8F803214DF23240FDF7A3F86D214DF238
:1057A0003340FDF79EF800214FF45540FDF799F87E
:1057B00033214DF20150FDF794F800214DF20250D3
:1057C000FDF78FF834214DF20350FDF78AF80021E0
:1057D0004DF20450FDF785F83A214DF20550FDF7E2
:1057E00080F800214DF20650FDF77BF84A214DF27A
:1057F0000750FDF776F800214DF20850FDF771F8DB
:105800005C214DF20950FDF76CF800214DF20A5071
:10581000FDF767F881214DF20B50FDF762F800218A
:105820004DF20C50FDF75DF8A6214DF20D50FDF73D
:1058300058F800214DF20E50FDF753F8E5214DF2D6
:105840000F50FDF74EF801214DF21050FDF749F8C9
:1058500013214DF21150FDF744F801214DF2125081
:10586000FDF73FF854214DF21350FDF73AF80121AE
:105870004DF21450FDF735F882214DF21550FDF729
:1058800030F801214DF21650FDF72BF8CA214DF2E8
:105890001750FDF726F802214DF21850FDF721F8B8
:1058A00000214DF21950FDF71CF802214DF21A505B
:1058B000FDF717F801214DF21B50FDF712F80221F8
:1058C0004DF21C50FDF70DF834214DF21D50FDF73F
:1058D00008F802214DF21E50FDF703F867214DF242
:1058E0001F50FCF7FEFF02214DF22050FCF7F9FF9C
:1058F00084214DF22150FCF7F4FF02214DF2225099
:10590000FCF7EFFFA4214DF22350FCF7EAFF022140
:105910004DF22450FCF7E5FFB7214DF22550FCF77E
:10592000E0FF02214DF22650FCF7DBFFCF214DF2C4
:105930002750FCF7D6FF02214DF22850FCF7D1FF8B
:10594000DE214DF22950FCF7CCFF02214DF22A5006
:10595000FCF7C7FFF2214DF22B50FCF7C2FF0221EA
:105960004DF22C50FCF7BDFFFE214DF22D50FCF7FF
:10597000B8FF03214DF22E50FCF7B3FF10214DF27A
:105980002F50FCF7AEFF03214DF23050FCF7A9FF7A
:1059900033214DF23150FCF7A4FF03214DF2325078
:1059A000FCF79FFF6D214DF23350FCF79AFF002169
:1059B0004FF45640FCF795FF33214DF20160FCF7A0
:1059C00090FF00214DF20260FCF78BFF34214DF275
:1059D0000360FCF786FF00214DF20460FCF781FFB5
:1059E0003A214DF20560FCF77CFF00214DF2066084
:1059F000FCF777FF4A214DF20760FCF772FF0021A8
:105A00004DF20860FCF76DFF5C214DF20960FCF778
:105A100068FF00214DF20A60FCF763FF81214DF21F
:105A20000B60FCF75EFF00214DF20C60FCF759FFA4
:105A3000A6214DF20D60FCF754FF00214DF20E60DF
:105A4000FCF74FFFE5214DF20F60FCF74AFF012103
:105A50004DF21060FCF745FF13214DF21160FCF789
:105A600040FF01214DF21260FCF73BFF54214DF243
:105A70001360FCF736FF01214DF21460FCF731FF93
:105A800082214DF21560FCF72CFF01214DF21660CA
:105A9000FCF727FFCA214DF21760FCF722FF022115
:105AA0004DF21860FCF71DFF00214DF21960FCF764
:105AB00018FF02214DF21A60FCF713FF01214DF28D
:105AC0001B60FCF70EFF02214DF21C60FCF709FF82
:105AD00034214DF21D60FCF704FF02214DF21E60DF
