:020000040800F2
:10000000200800200D8200087522000877220008D1
:100010007B2200087F2200088322000800000000E5
:10002000000000000000000000000000872200081F
:1000300089220008000000008B2200088D220008A1
:1000400027820008278200082782000827820008EC
:1000500027820008278200082782000827820008DC
:1000600027820008278200082782000827820008CC
:1000700027820008278200082782000827820008BC
:1000800027820008278200082782000827820008AC
:10009000278200082782000827820008278200089C
:1000A000278200082782000827820008278200088C
:1000B000278200082782000827820008278200087C
:1000C000278200082782000827820008278200086C
:1000D0002782000881810008278200082782000803
:1000E000278200082782000827820008278200084C
:1000F000278200082782000827820008278200083C
:10010000278200082782000827820008278200082B
:10011000278200082782000827820008278200081B
:10012000278200082782000827820008278200080B
:1001300027820008278200082782000827820008FB
:1001400027820008278200082782000827820008EB
:1001500027820008278200082782000827820008DB
:1001600027820008278200082782000827820008CB
:1001700027820008278200082782000827820008BB
:10018000278200082782000800F002F800F04FF8EC
:100190000AA090E8000C82448344AAF10107DA45E2
:1001A00001D100F044F8AFF2090EBAE80F0013F0E5
:1001B000010F18BFFB1A43F001031847B4C6000033
:1001C000D4C60000103A24BF78C878C1FAD85207C4
:1001D00024BF30C830C144BF04680C6070470000C1
:1001E0000023002400250026103A28BF78C1FBD840
:1001F000520728BF30C148BF0B60704766290AF01C
:10020000C686642909F04E82782909F08782002089
:1002100070471FB50AF0B1FE09F0B0FD04000020E0
:1002200000210AF013FBE0601FBD10B510BD09F0FE
:10023000BDFE1146FFF7EDFF01F084FD09F0DBFE86
:1002400003B4FFF7F2FF03BC07F03AFF0A460021B0
:1002500090ED000AF0EE400A90ED000AB0EE401A70
:1002600000BF1EE000EB810393ED000AB4EEE00A4C
:10027000F1EE10FA05DD00EB810393ED000AF0EEDC
:10028000400A00EB810393ED000AB4EEC10AF1EEDF
:1002900010FA05D200EB810393ED000AB0EE401A8C
:1002A000491C9142DEDB30EEC10A70470246002055
:1002B000DFEDFE0AB0EE600A00BF08E002EB80034B
:1002C000D3ED000A70EE800AB0EE600A401C88424E
:1002D000F4DB00EE901AF8EEE00A80EE201AB0EEA1
:1002E000410A704770B506460C4600259FEDEF0A9F
:1002F000F0EE401A21463046FFF7D8FFB0EE402A14
:1003000000BF1DE006EB850191ED000ADFEDE80A74
:1003100020EE200ADFEDE60A00EEC20ABDEEC00ABA
:1003200010EE100A002801DB014600E0414200EE19
:10033000101AB8EEC00A30EE210AF0EE401A6D1C19
:10034000A542DFDBB2EE040A61EE800A601E00EE19
:10035000100AB8EEC00A80EE801AF0EE411ADFED06
:10036000D40A81EEA00A70BD10B50446944203D1B0
:10037000994201D1012010BD0020FCE7F0B52DED20
:10038000088B83B00446B0EE408A06F07DFF00265D
:1003900097E0002520E0002007F055FD30EE480AE8
:1003A000C44800EB850080ED000AC34800680128BE
:1003B0000ED1002007F069FDBE4800EB8500D0EDAE
:1003C000000A30EEC00ABB4800EB850080ED000A51
:1003D000322007F0E5FD6D1C0A2DDCDB0A21B54853
:1003E000FFF764FFF0EE408A0A21B248FFF72EFFC4
:1003F000B0EE409A19EE100A0AF04EFD41EC1A0BCD
:100400009FEDAE0B53EC102B0AF00CFC57D218EEFC
:10041000900A0AF041FD41EC1A0B9FEDAA0B53EC38
:10042000102B0AF0FFFB00D24AE00A21A148FFF797
:100430003DFF601EA54901EB800080ED000A0A2106
:100440009C48FFF74FFF601EA14901EB800080ED43
:10045000000A601E0A4602EB800090ED000A10EED2
:10046000101A08460AF018FD41EC1A0B601E974A54
:1004700002EB800090ED000A10EE101A08460AF018
:100480000BFD41EC1B0B8DED00AB53EC1B2B91A036
:1004900009F0D4F84FF4FC609549088095A010212C
:1004A0000B46D222CDE9001011461E2006F081FE37
:1004B00006F0F5FE002003B0BDEC088BF0BD00BFD8
:1004C000761C032EFFF665AF06F0F5FE4FF478407C
:1004D000874908808CA010210B46D222CDE900105C
:1004E00011461E2006F065FE0A217248FFF7AEFE97
:1004F00010EE107A38460AF0CFFC41EC1A0B53ECA0
:100500001A2B874809F09AF80120D4E703B52DED9E
:10051000020B8BB001231A46DDE90D01FFF724FF22
:1005200000283FD07FA009F089F84FF6E0707049AD
:10053000088083A00C210B46C822CDE9001040F2B0
:1005400059111E2006F035FE9DED0B0A0120FFF724
:1005500015FF07904FF4FC6065490880079850B973
:100560007DA00C210B46C822CDE9001040F25911A4
:100570001E2006F01EFE00205D490880102000901D
:10058000524890ED000ADFED7A0A20EE200ABCEE18
:10059000C00A8DED060A0323BE216420069A06F0E8
:1005A00050FDAAE202230122DDE90D01FFF7DCFE86
:1005B00000283FD06FA009F041F84FF6E0704C4999
:1005C000088073A00C210B46C822CDE900104FF41F
:1005D000B4711E2006F0EDFD9DED0B0A0220FFF721
:1005E000CDFE07904FF4FC6041490880079850B950
:1005F0006DA00C210B46C822CDE900104FF4B47158
:100600001E2006F0D6FD00203949088010200090F9
:100610002E4890ED010ADFED560A20EE200ABCEECE
:10062000C00A8DED060A0323BE218C20069A06F02F
:1006300008FDB6E703230122DDE90D01FFF794FE73
:10064000002831D05EA008F0F9FF4FF6E07028498D
:10065000088062A00C210B46C822CDE9001040F2B0
:1006600077111E2006F0A5FD9DED0B0A0320FFF774
:1006700085FE07904FF4FC601D490880079850B92B
:100680005CA00C210B46C822CDE9001040F2771186
:100690001E2006F08EFD00201549088010200090D5
:1006A0000A4890ED020AB1E0BFE00000000000003F
:1006B00000401C46BC000020240000209A99999913
:1006C0009999C93F9A9999999999D93F0000002021
:1006D0009C0000204D65616E3D25662C20556E63A3
:1006E00065727461696E74793D2566200D0A00009B
:1006F00076000020547261696E20537461747573C2
:100700003A204F4B2E000000547261696E205374E2
:10071000617475733A204661696C65642E0000004F
:100720002CC80008666F72205472616E696E672073
:100730006F66206765737475726520312E0D0A002F
:10074000313A67657374757265203120747261691E
:100750006E696E672E000000313A676573747572BA
:1007600065203120547261696E6564212121000089
:100770000000C842666F72205472616E696E672015
:100780006F66206765737475726520322E0D0A00DE
:10079000323A6765737475726520322074726169CC
:1007A0006E696E672E000000323A67657374757269
:1007B00065203220547261696E6564212121000038
:1007C000666F72205472616E696E67206F66206773
:1007D00065737475726520332E0D0A00333A6765B0
:1007E0007374757265203320747261696E696E6707
:1007F0002E000000333A67657374757265203320EC
:10080000547261696E656421212100005FED280A40
:1008100020EE200ABCEEC00A8DED060A0323BE219D
:10082000B420069A06F00DFCBBE601230222DDE9A6
:100830000D01FFF799FD00283FD0FAA008F0FEFE59
:100840004FF6E070FE490880FEA10C200346C82246
:10085000CDE900014FF4C3711E2006F0AAFC9DED06
:100860000B0A0420FFF78AFD07904FF4FC60F4495F
:100870000880079850B9F9A00C210B46C822CDE991
:1008800000104FF4C3711E2006F093FC0020EC49C9
:10089000088010200090F74890ED030A5FED4C0AA5
:1008A00020EE200ABCEEC00A8DED060A0323BE210D
:1008B000DC20069A06F0C5FB73E602231A46DDE942
:1008C0000D01FFF751FD002840D0EBA008F0B6FE67
:1008D0004FF6E070DA490880EEA00C210B46C822E2
:1008E000CDE9001040F295111E2006F062FC9DED4E
:1008F0000B0A0520FFF742FD07904FF4FC60D0493A
:100900000880079850B9E9A00C210B46C822CDE910
:10091000001040F295111E2006F04BFC0020C84943
:10092000088010200090D34890ED040A5FED700A13
:1009300020EE200ABCEEC00A8DED060A0323BE217C
:100940004FF48270069A06F07CFB2AE6012304220B
:10095000DDE90D01FFF708FD00283FD0D9A008F020
:100960006DFE4FF6E070B6490880DEA00C210B4604
:10097000C822CDE9001040F21D111E2006F019FC1E
:100980009DED0B0A0620FFF7F9FC07904FF4FC6081
:10099000AB490880079850B9D8A10C200346C8225B
:1009A000CDE9000140F21D111E2006F002FC0020DE
:1009B000A349088010200090AE4890ED050A5FED35
:1009C000940A20EE200ABCEEC00A8DED060A03232D
:1009D000AA216420069A06F034FBE2E503230422F0
:1009E000DDE90D01FFF7C0FC00283FD0C9A008F0E9
:1009F00025FE4FF6E07092490880CEA00C210B46F0
:100A0000C822CDE900104FF496711E2006F0D1FBEC
:100A10009DED0B0A0720FFF7B1FC07904FF4FC6037
:100A200087490880079850B9C8A10C200346C822FE
:100A3000CDE900014FF496711E2006F0BAFB0020AC
:100A40007F490880102000908A4890ED060A5FEDEB
:100A5000B80A20EE200ABCEEC00A8DED060A032378
:100A6000AA21A020069A06F0ECFA9AE504231A4679
:100A7000DDE90D01FFF778FC00283FD0B9A008F0B0
:100A8000DDFD4FF6E0706E490880BDA00C210B46DD
:100A9000C822CDE9001040F23B111E2006F089FB70
:100AA0009DED0B0A0820FFF769FC07904FF4FC60EE
:100AB00063490880079850B9B7A00C210B46C8229B
:100AC000CDE9001040F23B111E2006F072FB002021
:100AD0005B49088010200090664890ED070A5FEDA2
:100AE000DC0A20EE200ABCEEC00A8DED060A0323C4
:100AF000AA21DC20069A06F0A4FAA0E2042301222F
:100B0000DDE90D01FFF730FC002873D0A8A008F044
:100B100095FD00204A490880ACA00C210B46B42268
:100B2000CDE900104FF487711E2006F042FB002033
:100B3000099026E0002007F086F9DDED0B0A30EE83
:100B4000600AA849099801EB800080ED000AA648D8
:100B5000006801280FD1002007F097F9A1490998F2
:100B600001EB8000D0ED000A30EEC00A099801EBDD
:100B7000800080ED000A322007F012FA0998401C2C
:100B8000099009980528D5DB05219648FFF78EFBCB
:100B90008DED080A374890ED050AD0ED060A30EED3
:100BA000200AB0EE001AC0EE010A9DED080AF4EE2C
:100BB000C00AF1EE10FA1EDD1F20214908808BA12A
:100BC00010200346D222CDE900011E21084606F07E
:100BD000F0FA8CA010210B466422CDE900101E21F2
:100BE0004FF4827006F0E5FA06F0AEFB86A008F03E
:100BF00025FD24E252E11F4890ED060AD0ED070AD8
:100C000030EE200AB0EE001AC0EE010A9DED080A8F
:100C1000F4EEC00AF1EE10FA02DD1F20084901E1EE
:100C20001DE10000666F72205472616E696E67206C
:100C30006F66206765737475726520342E0D0A0027
:100C400076000020343A676573747572652034202D
:100C5000747261696E696E672E000000343A6765D0
:100C60007374757265203420547261696E656421F5
:100C70002121000000000020666F72205472616E16
:100C8000696E67206F6620676573747572652035BD
:100C90002E0D0A00353A676573747572652035202C
:100CA000747261696E696E672E000000353A67657F
:100CB0007374757265203520547261696E656421A4
:100CC00021210000666F72205472616E696E672088
:100CD0006F6620676573747572652053542E0D0A14
:100CE000000000002A3A67657374757265205354DA
:100CF00020747261696E696E672E00002A3A67651A
:100D0000737475726520535420547261696E656402
:100D100021212100666F72205472616E696E672016
:100D20006F662067657374757265204A442E0D0ADC
:100D300000000000233A67657374757265204A44A9
:100D400020747261696E696E672E0000233A6765D0
:100D50007374757265204A4420547261696E6564CB
:100D600021212100666F72205472616E696E6720C6
:100D70006F66206765737475726520422E0D0A00D8
:100D8000443A6765737475726520422074726169B4
:100D90006E696E672E000000443A67657374757261
:100DA00065204220547261696E6564212121000032
:100DB000466F7220446574656374696F6E206F6658
:100DC0002053544A44422E0D0A000000413A446523
:100DD00074656374696F6E206F662053544A444291
:100DE00000000000BC000020240000204765737450
:100DF000757265205265636F676E697A65643A2023
:100E000020000000535420007265636F676E697A9A
:100E10006564203A206765737475726520535420A9
:100E20002E0D0A000880AFF23C0010210B46D222A2
:100E3000CDE900101E21084606F0BBF9FEA01021E6
:100E40000B466422CDE900101E214FF4827006F09B
:100E5000B0F906F088FAF9A008F0F0FBD6E21F20FE
:100E6000FD490880AFF27C0010210B46D222CDE96B
:100E700000101E21084606F09CF9F8A010210B4630
:100E80006422CDE900101E214FF4827006F091F922
:100E900006F079FAF2A008F0D1FBB7E204230222AF
:100EA000DDE90D01FFF760FA00287DD0F3A008F01E
:100EB000C5FB0020E8490880F7A00C210B46B422AE
:100EC000CDE900104FF4A5711E2006F072F9002044
:100ED000099026E0002006F0B6FFDDED0B0A30EEAB
:100EE000600AF349099801EB800080ED000AF1489F
:100EF000006801280FD1002006F0C7FFEC490998CF
:100F000001EB8000D0ED000A30EEC00A099801EB39
:100F1000800080ED000A322007F042F80998401C5A
:100F2000099009980528D5DB0521E148FFF7BEF9AE
:100F30008DED080A012009907AE00998052839DA30
:100F40000998401EDC4901EB800090ED000A0998E9
:100F500001EB8000D0ED000A30EE200AB0EE001A5E
:100F6000C0EE010A9DED080AF4EEC00AF1EE10FA97
:100F700020DB1F21B8480180AFF2901010210B46F2
:100F8000D222CDE900101E21084606F012F91020E9
:100F9000022300901E214FF48270099A06F051F846
:100FA000099806F0A8F900E04AE0C4A0099908F001
:100FB00045FB40E00998052837D10998801EBE49B5
:100FC00001EB800090ED000A0998401E01EB8000C3
:100FD000D0ED000A30EE200AB0EE001AC0EE010A91
:100FE0009DED080AF4EEC00AF1EE10FA1DD21F21A1
:100FF00099480180AFF20C2010210B46B422CDE9B4
:1010000000101E21084606F0D4F81020022300909C
:101010001E214FF48270099A06F013F8099806F021
:101020006AF9A6A0099908F009FB0998401C0990E3
:101030000998062881DB00BFC82006F0B1FFE5E172
:1010400003231A46DDE90D01FFF78EF90028F6D0DB
:1010500000200690069021E09F49069851F8200054
:10106000019009F019FFCDE904019349069851F860
:101070002000019009F010FFCDE90201DDE9040133
:10108000CDE900019DED020B53EC102B0699491C94
:1010900092A008F0D3FA0698401C069006980528FE
:1010A000DADB8D484069019009F0F6FECDE90401D4
:1010B00081484069019009F0EFFECDE90201DDE9C8
:1010C0000401CDE900019DED020B53EC102B8EA025
:1010D00008F0B4FA80488069019009F0DDFECDE99E
:1010E000040175488069019009F0D6FECDE902013E
:1010F000DDE90401CDE900019DED020B53EC102B5D
:101100008CA008F09BFA7448C069019009F0C4FEF5
:10111000CDE904016848C069019009F0BDFECDE940
:101120000201DDE90401CDE900019DED020B53EC64
:10113000102B8BA008F082FA00204749088093A06A
:1011400010210B468C22CDE90010AA211E2006F0AA
:1011500030F810200090584890ED050ADFED8E0A17
:1011600020EE200ABCEEC00A8DED050A0323AA2159
:101170006420059A05F065FF102000904E4890ED20
:10118000060ADFED850A20EE200ABCEEC00A8DEDCE
:10119000050A0323AA21A020059A05F052FF10207A
:1011A0000090454890ED070ADFED7B0A20EE200A0B
:1011B000BCEEC00A8DED050A0323AA21DC20059AA6
:1011C00005F03FFF75A010210B468C22CDE90010E1
:1011D000BE211E2005F0EDFF10200090364890ED56
:1011E000000ADFED6D0A20EE200ABCEEC00A8DED8C
:1011F000050A0323BE216420059A05F022FF102072
:1012000000902D4890ED010ADFED630A20EE200AE0
:10121000BCEEC00A8DED050A0323BE218C20059A81
:1012200005F00FFF10200090234890ED020ADFED3B
:101230005A0A20EE200AB7E04A4420007265636F24
:10124000676E697A6564203A2067657374757265A4
:10125000204A44202E0D0A00760000204220200063
:101260007265636F676E697A6564203A206765739B
:10127000747572652042202E0D0A0000466F7220A0
:10128000446574656374696F6E206F662031323314
:1012900034352E0D0A000000423A446574656374CB
:1012A000696F6E206F6620313233343500000000E4
:1012B000BC00002024000020000000207265636F45
:1012C000676E697A6564203A206765737475726524
:1012D0002025642E0D0A00009C0000204D65616EE3
:1012E000206F662067657374757265202564203DE4
:1012F0002025662C20556E6365727461696E747961
:10130000203D2025660D0A004D65616E206F662028
:1013100067657374757265205354203D2025662CD3
:1013200020556E6365727461696E7479203D202565
:10133000660D0A004D65616E206F662067657374E7
:10134000757265204A44203D2025662C20556E6329
:1013500065727461696E7479203D2025660D0A00FE
:101360004D65616E206F66206765737475726520C8
:101370002042203D2025662C20556E6365727461E5
:10138000696E7479203D2025660D0A0053544A4445
:101390004220433A200000000000C842313233347A
:1013A0003520433A20000000BCEEC00A8DED050A4E
:1013B0000323BE21B420059A05F043FE10200090BF
:1013C000FE4890ED030A5FED0C0A20EE200ABCEE09
:1013D000C00A8DED050A0323BE21DC20059A05F025
:1013E00030FE10200090F54890ED040A5FED160ADB
:1013F00020EE200ABCEEC00A8DED050A0323BE21B3
:101400004FF48270059A05F01CFE00BF00200FB05B
:1014100000BD1CB54FF6FF7001F04CFF0020E849FD
:101420000880E848006850B9E7A010210B46D22296
:10143000CDE900100A211E2005F0BBFE09E0E8A05E
:1014400010210B46D222CDE900100A211E2005F002
:10145000B0FEEAA010210B46D222CDE900101E21D9
:10146000084605F0A6FEEBA010210B46D222CDE9DE
:10147000001032211E2005F09CFE1F20D04908805C
:10148000E7A010210B46D222CDE9001046211E20F4
:1014900005F08FFEE6A010210B46D222CDE9001008
:1014A0005A211E2005F085FEE5A010210B46D22210
:1014B000CDE900106E211E2005F07BFEE4A0102176
:1014C0000B46D222CDE9001082211E2005F071FECC
:1014D000E3A010210B46D222CDE9001096211E2058
:1014E00005F067FE0020B6490880AFF260101021B9
:1014F0000B46D222CDE90010AA211E2005F059FE8C
:10150000AFF2681010210B46D222CDE90010BE21A7
:101510001E2005F04EFED648006850B9D5A0102117
:101520000B46D222CDE9001011461E2005F041FEE7
:1015300029E0CF48006801280BD1AFF648601021A0
:101540000B46D222CDE9001011461E2005F031FED7
:1015500019E0C7480068401C58B9AFF65460102124
:101560000B46D222CDE9001011461E2005F021FEC7
:1015700009E0C6A010210B46D222CDE90010114689
:101580001E2005F016FE4BF640408D490880C3A092
:1015900010210B46B422CDE90010FA211E2005F0DF
:1015A00008FEAFF2D8700C210B46B422CDE9001032
:1015B0004FF487711E2005F0FCFD4FF47840804900
:1015C0000880BEA00C210B46B422CDE9001040F2E9
:1015D0001D111E2005F0EDFDBEA00C210B46B4220E
:1015E000CDE900104FF496711E2005F0E2FDBFA07A
:1015F0000C210B46B422CDE9001040F23B111E2015
:1016000005F0D7FD4BF640406D490880AFF27830C9
:101610000C210B46B422CDE900104FF4A5711E2019
:1016200005F0C7FD4FF4784065490880B5A00C214E
:101630000B46B422CDE9001040F259111E2005F0EE
:10164000B8FDB6A00C210B46B422CDE90010510024
:101650001E2005F0AEFDB7A00C210B46B422CDE94B
:10166000001040F277111E2005F0A3FDB7A00C2159
:101670000B46B422CDE900104FF4C3711E2005F0D3
:1016800098FDB8A00C210B46B422CDE9001040F221
:1016900095111E2005F08DFDB8A00C210B46C82227
:1016A000CDE900104FF4D2711E2005F082FDBAA0E2
:1016B0000C210B46B422CDE9001040F2B3111E20DC
:1016C00005F077FDB9A00C210B46F022CDE9001002
:1016D0004FF4E1711E2005F06CFD1CBD10B52DED21
:1016E000068B82B00020364908804DA010210B46A1
:1016F000D222CDE9001046211E2005F05AFDB24845
:10170000006809F0C9FB41EC1A0BB0EE4A0AF0EE92
:101710006A0A09F08AF8B0EE409AF0EE609A9FEDFE
:10172000AB0B53EC102B51EC190B09F0B7FA41EC51
:10173000180B09F037FA04461020032322464621ED
:101740000090782005F07DFCA2A010210B466422B9
:10175000CDE900104621AA2005F02BFD9E48006827
:1017600009F09AFB41EC1A0BB0EE4A0AF0EE6A0A55
:1017700009F05BF8B0EE409AF0EE609A9FED930BA3
:1017800053EC102B51EC190B09F088FA41EC180BB3
:1017900009F008FA0446102003232246462100904F
:1017A000D22005F04EFC8DA010210B466422CDE91D
:1017B00000104621FA2005F0FCFC13E10000002097
:1017C000760000202400002043757272656E74203C
:1017D0004D6F64653A204E6F726D616C00000000C1
:1017E00043757272656E74204D6F64653A20436F65
:1017F0006D70656E736174696F6E0000477373740A
:10180000757265205265636F676E697A65643A2008
:101810002000000054656D7020433A200000000055
:1018200043757272656E742043303A2000000000E8
:1018300043757272656E742043313A2000000000D7
:1018400043757272656E742043323A2000000000C6
:1018500043757272656E742043333A2000000000B5
:1018600043757272656E742043343A2000000000A4
:1018700030000020547261696E2053746174757376
:101880003A20696E672E2E2E0000000054726169A6
:101890006E205374617475733A2000002A2A2A2A34
:1018A0002A2046756E6374696F6E206F66204B65E3
:1018B0007973202A2A2A2A2A2A0000002A3A6765F0
:1018C000737475726520535420554E747261696E3D
:1018D00065640000233A67657374757265204A4435
:1018E00020554E747261696E65640000443A676504
:1018F000737475726520204220554E747261696E52
:1019000065640000313A6765737475726520312033
:10191000554E747261696E6564000000323A676505
:101920007374757265203220554E747261696E65EC
:1019300064000000333A6765737475726520332064
:10194000554E747261696E6564000000343A6765D3
:101950007374757265203420554E747261696E65BA
:1019600064000000353A6765737475726520352030
:10197000554E747261696E6564000000393A73688F
:101980006F7720414C4C20747261696E696E6720DC
:101990006461746100000000373A6368616E6765D6
:1019A000207072696E74666D6F646500383A6368A2
:1019B000616E676520636F6D70656E736174696FCA
:1019C0006E206D6F6465000038000020000000008C
:1019D00000005940205A3D004C0000202F3130308B
:1019E00020706600AFF2B81010210B46D222CDE96C
:1019F00000105A211E2005F0DCFBFA48006809F0AF
:101A00004BFA41EC1A0BB0EE4A0AF0EE6A0A08F003
:101A10000CFFB0EE409AF0EE609A1FED140B53EC01
:101A2000102B51EC190B09F039F941EC180B09F0A6
:101A3000B9F804461020032322465A21009078204A
:101A400005F0FFFAAFF2740010210B466422CDE9D5
:101A500000105A21AA2005F0ACFBE348006809F009
:101A60001BFA41EC1A0BB0EE4A0AF0EE6A0A08F0D3
:101A7000DCFEB0EE409AF0EE609A1FED2C0B53ECBA
:101A8000102B51EC190B09F009F941EC180B09F076
:101A900089F804461020032322465A210090D220C0
:101AA00005F0CFFAAFF2CC0010210B466422CDE94D
:101AB00000105A21FA2005F07CFBAFF27C201021A7
:101AC0000B46D222CDE900106E211E2005F071FBDD
:101AD000C648006809F0E0F941EC1A0BB0EE4A0A7A
:101AE000F0EE6A0A08F0A1FEB0EE409AF0EE609ABD
:101AF0001FED4A0B53EC102B51EC190B09F0CEF8EB
:101B000041EC180B09F04EF804461020032322463E
:101B10006E210090782005F094FAAFF24810102161
:101B20000B466422CDE900106E21AA2005F041FB8E
:101B3000AF48006809F0B0F941EC1A0BB0EE4A0A60
:101B4000F0EE6A0A08F071FEB0EE409AF0EE609A8C
:101B50001FED620B53EC102B51EC190B09F09EF8A2
:101B600041EC180B09F01EF804461020032322460E
:101B70006E210090D22005F064FAAFF2A01010217F
:101B80000B466422CDE900106E21FA2005F011FB0E
:101B9000AFF2443010210B46D222CDE90010822151
:101BA0001E2005F006FB9348006809F075F941EC2A
:101BB0001A0BB0EE4A0AF0EE6A0A08F036FEB0EEF2
:101BC000409AF0EE609A1FED7F0B53EC102B51EC16
:101BD000190B09F063F841EC180B08F0E3FF044619
:101BE00010200323224682210090782005F029FA54
:101BF000AFF2202010210B466422CDE90010822193
:101C0000AA2005F0D6FA7C48006809F045F941ECB5
:101C10001A0BB0EE4A0AF0EE6A0A08F006FEB0EEC1
:101C2000409AF0EE609A1FED970B53EC102B51EC9D
:101C3000190B09F033F841EC180B08F0B3FF044618
:101C400010200323224682210090D22005F0F9F9CA
:101C5000AFF2782010210B466422CDE900108221DA
:101C6000FA2005F0A6FAAFF2084010210B46D22266
:101C7000CDE9001096211E2005F09BFA5F48006810
:101C800009F00AF941EC1A0BB0EE4A0AF0EE6A0AC2
:101C900008F0CBFDB0EE409AF0EE609A1FEDB50B68
:101CA00053EC102B51EC190B08F0F8FF41EC180B1A
:101CB00008F078FF04461020032322469621009066
:101CC000782005F0BEF9AFF2F42010210B46642213
:101CD000CDE900109621AA2005F06BFA484800686B
:101CE00009F0DAF841EC1A0BB0EE4A0AF0EE6A0A93
:101CF00008F09BFDB0EE409AF0EE609A1FEDCD0B20
:101D000053EC102B51EC190B08F0C8FF41EC180BE9
:101D100008F048FF04461020032322469621009035
:101D2000D22005F08EF9AFF24C3010210B46642220
:101D3000CDE900109621FA2005F03BFA02B0BDEC87
:101D4000068B10BD2DED0A8B84B00124002003907A
:101D500002904FF4A06006F079FAA82006F0BEF8D1
:101D60004FF4165006F0BAF905F056FA00F098FB59
:101D700001F0D2FA05F024FB00BF05F07AFF00283D
:101D8000FBD100BF05F0E6FF0028FBD11DA007F046
:101D900055FC4FF47A7006F003F91D48006818B935
:101DA00001201C49086002E000201A490860184818
:101DB00008300068012807D1154810300068012854
:101DC00002D1154908603FE0114808300068012839
:101DD00024D10F481030006818B902200E4908605D
:101DE00032E01BE03C0000205000002040000020BA
:101DF000540000204400002058000020480000202B
:101E00005C000020496E6974204F4B200D0A2E00A3
:101E1000048242422400002020000020CD480068B7
:101E200040B9CC4808300068012803D10320CA49D2
:101E3000086009E0C748006830B9C6480830006843
:101E400010B90420C4490860002005F0FCFFB0EE82
:101E5000408A002006F019F8F0EE408A18EE900A49
:101E600009F01AF841EC1A0B18EE100A09F014F8F0
:101E700041EC1B0B8DED00AB53EC1B2BB7A007F017
:101E8000DDFBFFF7C6FABCA010210B466422CDE9AA
:101E9000001032211E2005F08CF910200323BCEE27
:101EA000C80A10EE102A32210090782005F0C9F8F7
:101EB000AFF2E04010210B466422CDE90010322140
:101EC000AA2005F076F910200323BCEEE80A10EEF4
:101ED000102A32210090D22005F0B3F8AFF2005062
:101EE00010210B466422CDE9001032214FF482709C
:101EF00005F05FF92CE105F0E9F9A2A010210B46ED
:101F0000D222CDE9001011461E2005F052F9A34857
:101F100010210B46D222CDE900101E21084605F003
:101F200048F99FA010210B466422CDE900101E2124
:101F30004FF4827005F03DF94BF640409949088016
:101F4000AFF6AC400C210B46B422CDE900104FF4A3
:101F5000A5711E2005F02DF9904820380C210B4664
:101F6000B422CDE900104FF487711E2005F021F94D
:101F70004FF0FF3003900290002005F064FFB0EEB8
:101F8000409A002005F081FFF0EE409A864890EDDF
:101F9000000A864880ED000A854890ED000A8248D4
:101FA00080ED000A834890ED000A814880ED000A28
:101FB000814890ED000A7F4880ED000A39EE480A1A
:101FC0007D4880ED000A7D4890ED000A7C4880ED58
:101FD000000A7C4890ED000A784880ED000A7A48B3
:101FE00090ED000A774880ED000A784890ED000AED
:101FF000754880ED000A39EEE80A744880ED000A61
:10200000FFF76CFB54480068022819D1F0EE000A73
:10201000B0EE490A00EEE90AB0EE001AF0EE480A06
:1020200041EE680A30EE600A10EE101A084608F019
:1020300033FF41EC1A0B53EC1A2B65A007F0FEFAA4
:1020400045480068012818D139EEE80A10EE101A48
:10205000084608F021FF41EC1A0B39EE480A10EE51
:10206000101A084608F018FF41EC1B0B8DED00AB71
:1020700053EC1B2B5DA007F0E1FA374800680328FA
:1020800012D119EE900A08F007FF41EC1A0B19EE75
:10209000100A08F001FF41EC1B0B8DED00AB53EC77
:1020A0001B2B5AA007F0CAFA2B48006804282CD131
:1020B00039EEE80A10EE101A084608F0EDFE41EC81
:1020C0001C0BB0EE4C0AF0EE6C0A08F0AEFBB0EE62
:1020D00040AAF0EE60AA39EE480A10EE101A08463F
:1020E00008F0DAFE41EC1C0BB0EE4C0AF0EE6C0A84
:1020F00008F09BFBB0EE40BAF0EE60BA8DED00AB9D
:1021000053EC1B2B48A007F099FA02A903A805F08D
:102110007EF920B94DA0DDE9022107F08FFA012CEC
:1021200012D153480068012808D178EE680AB0EE51
:10213000600ADDE90210FEF7E9F905E0B0EE480AB1
:10214000DDE90210FEF7E2F94FF4C87005F028FF50
:10215000D1E600000C8242422000002074656D70C0
:1021600030203D2025662C5A74656D7030203D204E
:1021700025662E200D0A0000433A74656D70303DCF
:1021800000000000547261696E20537461747573AD
:102190003A2020202020202020200000EC0D0008E4
:1021A000202020007600002044000020480000206D
:1021B000400000203C000020380000205800002093
:1021C0005C00002054000020500000204C00002043
:1021D000436F6D70656E736174696F6E2043482044
:1021E0003D2025332E3366200D0A00004348302D54
:1021F000203D2025332E33662C205A4348302D2095
:102200003D2025332E3366200D0A00004348302040
:102210007265733D25662C205A43483020726573E1
:102220003D2566200D0A000043483020616273207E
:102230003D25332E33662C205A434830206162738B
:10224000203D25332E3366200D0A00006B65792072
:102250007072657373656420726F773D25642C20FE
:10226000636F6C756D6E3D2564200D0A00000000E3
:1022700024000020704700BFFEE700BFFEE700BF5C
:10228000FEE700BFFEE770477047704770470000E9
:102290000CB50020019000907648006840F4803032
:1022A0007449086000BF7348006800F40030009073
:1022B0000198401C0190009818B90198B0F5A04F02
:1022C000F1D16C48006800F4003010B1012000909A
:1022D00001E0002000900098012846D16548403078
:1022E000006840F0805063494031086062480068EF
:1022F00040F44040604908605E48083000685D492D
:10230000083108600846006840F40040086008464C
:10231000006840F4A05008605848091F0860081F72
:10232000006840F08070091F086000BF51480068D5
:1023300000F000700028F9D040F2057050490860A4
:102340004C480830006820F003004A490831086012
:102350000846006840F00200086000BF45480830A9
:10236000006800F00C000828F8D10CBD10B54548F5
:10237000006840F47000434908603E48006840F03F
:1023800001003C49086000203A490831086039489A
:1023900000683D490840374908603C48091D08600D
:1023A000081F006820F48020091F086000203149C0
:1023B0000C310860FFF76CFF4FF000603149803945
:1023C000086010BD70B50020002202230024022105
:1023D000284D08352D6805F00C0020B1042806D0E2
:1023E000082834D107E02A4D2A4E356033E02A4DC3
:1023F000284E35602FE01F4D2D1D2D68C5F38054EC
:102400001C4D2D1D2D6805F03F0154B1224DB5FB2B
:10241000F1F5184E361D3668C6F3881605FB06F230
:1024200009E01B4DB5FBF1F5124E361D3668C6F3BB
:10243000881605FB06F20F4D2D1D2D68C5F30145CD
:102440006D1C6B00B2FBF3F5124E356003E0104DCE
:10245000104E356000BF00BF064D08352D68C5F32E
:1024600003150E4E705D0B4D2D68C540094E35604D
:1024700070BD000000380240007000400854400762
:10248000003C024088ED00E0FFFFF6FE1030002423
:102490000024F4006000002000127A006400002094
:1024A0001CB50121202006F073FF2A200090002097
:1024B0008DF8040003208DF8050001208DF8070039
:1024C0006946314805F0B8FF1CBD10B5044614B18B
:1024D00001202E4908702D480078002837D010219F
:1024E0002B4806F00BF878B10821294806F006F8C9
:1024F00050B10421264806F001F828B101212548F1
:1025000005F0FCFF012822D10A2005F049FD00203A
:102510001E49087010211E4805F0F0FF08B901207F
:1025200010BD08211A4805F0E9FF08B90220F7E7B5
:102530000421174805F0E2FF08B90320F0E7012164
:10254000144805F0DBFF01281BD10420E8E7102127
:102550000F4805F0D3FF012813D108210C4805F0DE
:10256000CDFF01280DD10421094805F0C7FF01283E
:1025700007D10121074805F0C1FF10B90120034927
:1025800008700020CCE70000001402407400002016
:10259000001002400000024001B5BDF800000090AC
:1025A000BDF80000F849088008BD01B5BDF800007D
:1025B0000090BDF80000F449891C088008BD08B5EA
:1025C000F148801C00880090BDF8000008BDEE4A6C
:1025D00010804FF0D842A2F88010704710B5044622
:1025E0002046FFF7D9FF052005F092FCFFF7E7FF33
:1025F00010BDE6480089E44908807047E249891C1B
:102600000880704730B5014601F01F04C1F345133F
:10261000CA0AE50205EB43151544A8B230BD00BF58
:102620000100A0F10102D0B2FAD1704730B50446E2
:102630000D46D648808849F24131884205D0D348BA
:10264000808845F21031884214D1D0494889FFF77B
:10265000A3FF2012FFF7A9FFE0B2FFF7A6FFCB49C7
:102660008889FFF799FF2812FFF79FFFE8B2FFF76D
:102670009CFFABE0C548808846F6040188421DD126
:10268000C2488079012804D1C0480088401E001B40
:1026900084B2BE494889FFF77FFF2012FFF785FF0C
:1026A000E0B2FFF782FFB9498889FFF775FF28126A
:1026B000FFF77BFFE8B2FFF778FF87E0B348808839
:1026C00041F66311884247D1B0488079A8B9AF4834
:1026D0000088401E001B84B2AC494889FFF75CFFAC
:1026E0000020FFF762FF0020FFF75FFF2012FFF7D7
:1026F0005CFFE0B2FFF759FF16E0A4494889FFF7F5
:102700004BFF2012FFF751FFE0B2FFF74EFF9F494A
:102710000988491EC1F30F20FFF747FF9B4909783D
:10272000491EC8B2FFF741FF98498889FFF734FF77
:102730002812FFF73AFFE8B2FFF737FF93494988BD
:10274000491EC1F30F20FFF730FF90498978491ED9
:10275000C8B2FFF72AFF39E08C48808845F2105153
:10276000884220D189494889FFF716FF2012FFF7D8
:102770001CFF86494989491C88B2FFF70DFFE0B26A
:10278000FFF713FF81498889FFF706FF2812FFF73B
:102790000CFF7E498989491C88B2FFF7FDFEE8B22B
:1027A000FFF703FF12E079488079012804D17748C8
:1027B0000088401E001B84B2744948892146FFF7F7
:1027C00006FF724988892946FFF701FF30BD2DE9D0
:1027D000F04105460E4600240027A0466B480088BD
:1027E000A84203DD69484088B04202DC0020BDE811
:1027F000F08131462846FFF719FF6448808849F286
:102800004131884211D06148808846F604018842EF
:102810000BD05E48808845F21031884205D05B4875
:10282000808841F66311884203D12E20FFF7B4FE61
:102830000DE05648808845F21051884204D14FF48B
:102840003850FFF7A9FE02E02220FFF7A5FE4F480F
:10285000808849F22031884202D10220FFF7DFFE52
:10286000FFF7ADFE04464948808841F6631188426F
:1028700001D12046BBE70220FFF7D1FEFFF79FFE04
:1028800004464248808849F2413188420BD03F4893
:10289000808845F21031884205D03C48808845F256
:1028A000105188420AD10220FFF7B9FEFFF787FED8
:1028B0008046E7B24FF6FF7000EA0727334880886A
:1028C00049F22531884216D03048808844F235518B
:1028D000884210D02D488088091F88420BD02B4891
:1028E00080884BF20551884205D0284880884CF2F8
:1028F0000551884201D1204679E72448808849F271
:10290000413188420BD02148808845F210318842FD
:1029100005D01E48808845F21051884207D1E01248
:10292000C002B91240EA411040EAE8205FE72046C1
:10293000FFF768FE5BE700B51448808849F2413133
:10294000884211D01148808846F6040188420BD095
:102950000E48808845F21031884205D00B488088A7
:1029600041F66311884203D12920FFF715FE14E0D8
:102970000648808845F21051884209D14FF424500E
:10298000FFF70AFE09E000007E00006CE400002072
:1029900040F273110720FFF71AFE00BD00B5FD4895
:1029A000808849F24131884211D0FA48808846F641
:1029B000040188420BD0F748808845F210318842E4
:1029C00005D0F448808841F66311884203D128205D
:1029D000FFF7E2FD0EE0EF48808845F21051884293
:1029E00004D14FF42050FFF7D7FD03E0002107206A
:1029F000FFF7EDFD00BDF0B5054600240027E548D2
:102A0000807901280BD1E348808846F6040188428A
:102A100005D0E048808841F66311884208D1DD483E
:102A20008079F0B9DB48808841F66311884218D17B
:102A3000082D15D2DFE805F00406080A0C0E101266
:102A400006250DE007250BE0042509E0052507E034
:102A5000012505E0002503E0032501E0022500BF74
:102A600000BFCC48808849F24131884217D0C9481C
:102A7000808846F60401884211D0C648808845F215
:102A8000103188420BD0C348808845F210518842EB
:102A900005D0C048808841F6631188427ED1082D58
:102AA0001CD2DFE805F00406090C0F12151800BF50
:102AB00014E044F0800411E044F040040EE044F0DF
:102AC000C0040BE044F0200408E044F0600405E09A
:102AD00044F0A00402E044F0E00400BF00BFAD48B1
:102AE000808845F21051884202D14FF4585700E0D7
:102AF0003627A848808845F2103188420DD0A54875
:102B0000808845F21051884207D0A248808841F65B
:102B10006311884201D044F008049E48808846F63C
:102B20000401884201D144F0020421463846FFF7EF
:102B30004EFD9848808841F6631188421DD004F00C
:102B4000200068B19348008892494988884214DA85
:102B50009048068840888F490880084646800CE0E7
:102B60008C4800888B494988884206DD8948068858
:102B7000408888490880084646808648808845F213
:102B80001051884254D183494889FFF705FD002040
:102B9000FFF70BFD7F494989491C00E077E088B2C7
:102BA000FFF7FAFC0020FFF700FD7A494989891CEC
:102BB00088B2FFF7F1FC77490988491EC1F30F205D
:102BC000FFF7F3FC73494989C91C88B2FFF7E4FC9D
:102BD00070490978491EC8B2FFF7E7FC6D4988893A
:102BE000FFF7DAFC0020FFF7E0FC6A498989491CFD
:102BF00088B2FFF7D1FC0020FFF7D7FC654989892F
:102C0000891C88B2FFF7C8FC62494988491EC1F394
:102C10000F20FFF7CAFC5F498989C91C88B2FFF7FA
:102C2000BBFC5C498978491EC8B2FFF7BEFC55E081
:102C300058494889FFF7B0FC0020FFF7B6FC002098
:102C4000FFF7B3FC53490988491EC1F30F20FFF772
:102C5000ACFC50490978491EC8B2FFF7A6FC4D49A3
:102C60008889FFF799FC0020FFF79FFC0020FFF701
:102C70009CFC48494988491EC1F30F20FFF795FC89
:102C800044498978491EC8B2FFF78FFC26E0082D19
:102C90001CD2DFE805F004070A0D0F12151844F0E6
:102CA000300413E044F0100410E044F020040DE080
:102CB00000BF0BE044F0380408E044F0280405E0CD
:102CC00044F0180402E044F0080400BF00BF0327EA
:102CD00044F4805421463846FFF779FCF0BD30B506
:102CE00004460D4629462046FFF7A0FCFFF781FC6D
:102CF000294800882949088030BD70B504460D4632
:102D000016462448808849F24131884205D021483E
:102D1000808845F21031884214D11E494889FFF756
:102D20003BFC2012FFF741FCE0B2FFF73EFC1949E3
:102D30008889FFF731FC2812FFF737FCE8B2FFF76C
:102D400034FC93E01348808845F21051884227D123
:102D500010494889FFF720FC2012FFF726FC0D4997
:102D60004989491C88B2FFF717FCE0B2FFF71DFC48
:102D700008498889FFF710FC2812FFF716FC05495F
:102D80008989491C88B2FFF707FCE8B2FFF70DFC00
:102D90006CE00000E4000020760000208000006C61
:102DA000FE48808841F66311884228D1FB4880792B
:102DB00020B9FA480088401E001B84B2F7494889B0
:102DC000FFF7EAFB2012FFF7F0FBE0B2FFF7EDFBA5
:102DD0002012FFF7EAFBE0B2FFF7E7FBEF49888933
:102DE000FFF7DAFB2812FFF7E0FBE8B2FFF7DDFBA5
:102DF0002812FFF7DAFBE8B2FFF7D7FB36E0E74827
:102E0000808846F6040188421DD1E4488079012873
:102E100004D1E2480088401E001B84B2DF49488983
:102E2000FFF7BAFB2012FFF7C0FBE0B2FFF7BDFBD4
:102E3000DA498889FFF7B0FB2812FFF7B6FBE8B242
:102E4000FFF7B3FB12E0D5488079012804D1D348BD
:102E50000088401E001B84B2D04948892146FFF7F4
:102E6000B6FBCE4988892946FFF7B1FBCB480089DC
:102E7000CB4908804FF0D840A0F8806070BD70B595
:102E80002DED048B0446BE20FFF786FB0520FFF7DF
:102E90008CFB204607F0B3FE41EC190B9FEDC10BF4
:102EA00053EC102B07F0FAFE41EC180B07F07AFEFA
:102EB00085B22846FFF779FB0120FFF776FBFF205C
:102EC000FFF773FB0020FFF770FB0020FFF76DFB9F
:102ED000BDEC048B70BD10B50446002C66D1AF4923
:102EE0008871F02008804FF4A070488008468088E0
:102EF00049F2413188420BD0A848808846F6040147
:102F0000884205D0A548808845F2103188421AD100
:102F10002C20A24908812A2048812B20888108463C
:102F2000808846F60401884205D09C48808845F296
:102F30001031884206D14FF4A070984908804FF4B0
:102F4000F0704880A1E09548808845F21051884291
:102F500010D14FF43050914908814FF428504881E6
:102F60004FF42C5088814FF4F07008804FF4487073
:102F700048808AE08948808841F6631188420DD1F3
:102F80002C20864908812B2048812A2088814FF4F3
:102F9000F07008804FF44870488076E022207F4926
:102FA000088120204881212088816EE001207B4912
:102FB00088714FF4A0700880F0204880084680880F
:102FC00049F24131884205D07448808845F2103179
:102FD000884207D12C20714908812A2048812B2062
:102FE00088813FE06D48808846F60401884207D119
:102FF0002C206A4908812B2048812A20888131E0D1
:103000006648808845F21051884210D14FF4305004
:10301000624908814FF4285048814FF42C50888130
:103020004FF4487008804FF4F07048801AE05B4815
:10303000808841F6631188420DD12C2057490881C0
:103040002A2048812B2088814FF4487008804FF453
:10305000F070488006E022205049088121204881F4
:10306000202088814D48808846F60401884205D09A
:103070004A48808845F21031884206D14FF4F070FA
:10308000464908804FF4A07048800020FFF7B3FC49
:1030900010BD2DE9F04F86B004460D469046994686
:1030A00004EB0800401E86B205EB0900401E87B203
:1030B0003A48808849F24131884215D037488088A3
:1030C00045F2103188420FD03448808846F604011A
:1030D000884209D031488079012826D12F4880883C
:1030E00041F66311884220D12C494889FFF754FAF0
:1030F0002012FFF75AFAE0B2FFF757FA3012FFF743
:1031000054FAF0B2FFF751FA24498889FFF744FADC
:103110002812FFF74AFAE8B2FFF747FA3812FFF72A
:1031200044FAF8B2FFF741FAC1E01C48808841F642
:10313000631188423DD119480088A0EB0800001BAC
:1031400084B205EB0900401E1FFA80F91349488933
:10315000FFF722FA2012FFF728FAE0B2FFF725FA6C
:1031600004EB0801491EC1F30F20FFF71EFA04EB20
:103170000801491EC8B2FFF718FA08498889FFF705
:103180000BFA2812FFF711FAE8B2FFF70EFA4FEA2E
:103190002920FFF70AFA09F0FF0007E0E400002009
:1031A0007E00006C6666666666660440FFF7FDF9A1
:1031B0007DE0FE48808845F21051884244D1FB49A9
:1031C0004889FFF7E9F92012FFF7EFF9F749498934
:1031D000491C88B2FFF7E0F9E0B2FFF7E6F9F349DE
:1031E0004989891C88B2FFF7D7F93012FFF7DDF95A
:1031F000EE494989C91C88B2FFF7CEF9F0B2FFF752
:10320000D4F9EA498889FFF7C7F92812FFF7CDF901
:10321000E6498989491C88B2FFF7BEF9E8B2FFF791
:10322000C4F9E2498989891C88B2FFF7B5F93812D7
:10323000FFF7BBF9DD498989C91C88B2FFF7ACF9F2
:10324000F8B2FFF7B2F932E0D848807901280ED100
:10325000AA46BB46D5480088801B401E80B201901C
:10326000D2480088001B401E80B2009003E0A246B6
:10327000B3460195009750200590512004905220AC
:1032800003905320029051460598FFF7A0F9594644
:103290000498FFF79CF901990398FFF798F90099B2
:1032A0000298FFF794F929462046FFF7BFF906B0C8
:1032B000BDE8F08F70B504460026BC4805884088FC
:1032C0004543BA48808846F60401884216D1B7487B
:1032D0008079012812D10020B44988712A204881C0
:1032E0002B20888100210846FFF7A0F90120AF4973
:1032F00088712B2048812A20888103E0002108461C
:10330000FFF794F9FFF775F9002602E0A84804805A
:10331000761CAE42FAD370BD00B5A1B0002020905B
:1033200001217A2006F034F80121084606F068F8F9
:103330004FF400401E9001208DF87C0000208DF895
:103340007E0002208DF87D0001208DF87F001EA9EF
:10335000984805F071F84CF233701E9002208DF8F9
:103360007C0000208DF87E0003208DF87D00012078
:103370008DF87F001EA9904805F05EF84FF680702A
:103380001E9002208DF87C0000208DF87E00032026
:103390008DF87D0001208DF87F001EA9874805F07B
:1033A0004BF84FF480501E9002208DF87C000020D6
:1033B0008DF87E0003208DF87D0001208DF87F00C0
:1033C0001EA97F4805F038F84FF480501E90022067
:1033D0008DF87C0000208DF87E0003208DF87D00A4
:1033E00001208DF87F001EA9764805F025F80C22F3
:1033F0000021714805F0ABF80C2201216E4805F060
:10340000A6F80C2204216C4805F0A1F80C22052135
:10341000694805F09CF80C220821674805F097F8E8
:103420000C220921644805F092F80C220A21624816
:1034300005F08DF80C220E215F4805F088F80C226B
:103440000F215D4805F083F80C2207215B4805F049
:103450007EF80C220821594805F079F80C22092140
:10346000564805F074F80C220A21544805F06FF80C
:103470000C220B21514805F06AF80C2211464F48E6
:1034800005F065F80C220D214C4805F060F80C227F
:103490000E214A4805F05BF80C220F21474805F041
:1034A00056F80C221146464805F051F80C221146F8
:1034B000444805F04CF80F200890002009903C206B
:1034C0000A9000200B900C900D900E900920019016
:1034D00000200290082003900020049005900690A0
:1034E000079006200F90002010901190102012904D
:1034F0000020139015901490169017904FF4805060
:103500001890002019904FF480401A9000201B90D2
:1035100008A81C9001A81D900FA805F096FA01219B
:10352000062005F01DFB322004F03AFD01210020A9
:10353000FFF74DF8322004F033FD0020FFF74EF87E
:103540001A49888008468088FF280ADB0846808858
:103550004FF6FF71884204D014488088B0F5134FAD
:103560007ED1D320FFF718F8FFF729F80F4988809C
:10357000FFF725F80D498880FFF721F80B4988806F
:10358000084680884FF6FF7101EA002007498880CD
:10359000FFF715F8054989880843044988800846DB
:1035A000808849F2413188425AD00DE0E400002081
:1035B0008000006C00040240000C02400010024039
:1035C0000014024000180240BF20FEF7E5FFFEF79E
:1035D000F6FFFE498880FEF7F2FFFC498880FEF77F
:1035E000EEFFFA498880FEF7EAFFF849888008462E
:1035F00080884FF6FF7101EA0020F4498880FEF7C9
:10360000DEFFF24989880843F049888008468088AF
:1036100046F6040188427AD0D420FEF7BDFFFEF7BB
:10362000CEFFEA498880FEF7CAFFE8498880FEF7A6
:10363000C6FFE6498880084680884FF6FF7101EA98
:103640000020E2498880FEF7BAFFE04989880843F4
:10365000DE4988800846808845F21031884200E0C3
:1036600055E054D04FF45A40FEF796FFFEF7A7FFFF
:10367000D64988804FF45B40FEF78EFFFEF79FFF30
:10368000D2498880084680884FF6FF7101EA002001
:10369000CE4988804FF45C40FEF77EFFFEF78FFF37
:1036A000CA4989880843C949888008468088B0F596
:1036B000004F02D145F210508880C448808845F2FE
:1036C0001051884223D0A120FEF766FFFEF777FF56
:1036D000BE498880FEF773FFBC4988800846808811
:1036E0004FF6FF7101EA0020B8498880FEF767FFB6
:1036F000B64989880843B54988800846808845F2DC
:103700006171884203D141F66310B0498880AF48A7
:10371000808849F24131884211D0AC48808845F216
:10372000103188420BD0A948808845F21051884258
:1037300005D0A648808841F6631188421DD1A4486F
:10374000006820F00F004FF02041C1F81C0108462E
:10375000D0F81C0120F47060C1F81C010846D0F8B4
:103760001C0140F00300C1F81C010846D0F81C0100
:1037700040F40070C1F81C0128E09448808846F6A7
:103780000401884205D0914880884CF20551884256
:103790001CD18F48006820F00F004FF02041C1F885
:1037A0001C010846D0F81C0120F47060C1F81C010F
:1037B0000846D0F81C0140F00A00C1F81C01084678
:1037C000D0F81C0140F44060C1F81C017F4881889A
:1037D00080A005F033FF7D48808849F2413188425E
:1037E0007ED1CF20FEF7D8FE0020FEF7DEFEC120FE
:1037F000FEF7DBFE3020FEF7D8FEED20FEF7CCFE14
:103800006420FEF7D2FE0320FEF7CFFE1220FEF763
:10381000CCFE8120FEF7C9FEE820FEF7BDFE852024
:10382000FEF7C3FE1020FEF7C0FE7A20FEF7BDFEB5
:10383000CB20FEF7B1FE3920FEF7B7FE2C20FEF7B5
:10384000B4FE0020FEF7B1FE3420FEF7AEFE0220EB
:10385000FEF7ABFEF720FEF79FFE2020FEF7A5FE49
:10386000EA20FEF799FE0020FEF79FFE0020FEF7FB
:103870009CFEC020FEF790FE1B20FEF796FEC120A6
:10388000FEF78AFE0120FEF790FEC520FEF784FEBB
:103890003020FEF78AFE3020FEF787FEC720FEF7B5
:1038A0007BFEB720FEF781FE3620FEF775FE48202E
:1038B000FEF77BFE3A20FEF76FFE5520FEF775FE01
:1038C000B120FEF769FE0020FEF76FFE1A20FEF71A
:1038D0006CFEB620FEF760FE0A20FEF766FE00E0F2
:1038E000A5E0A220FEF761FEF220FEF755FE0020C3
:1038F000FEF75BFE2620FEF74FFE0120FEF755FE89
:10390000E020FEF749FE0F20FEF74FFE2A20FEF7CB
:103910004CFE2820FEF749FE0820FEF746FE0E204A
:10392000FEF743FE0820FEF740FE5420FEF73DFE62
:10393000A920FEF73AFE4320FEF737FE0A20FEF7E5
:1039400034FE0F20FEF731FE0020FEF72EFE002091
:10395000FEF72BFE0020FEF728FE0020FEF725FED6
:10396000E120FEF719FE0020FEF71FFE1520FEF7EE
:103970001CFE1720FEF719FE0720FEF716FE112089
:10398000FEF713FE0620FEF710FE2B20FEF70DFEBD
:103990005620FEF70AFE3C20FEF707FE0520FEF744
:1039A00004FE1020FEF701FE0F20FEF7FEFD3F2073
:1039B000FEF7FBFD3F20FEF7F8FD0F20FEF7F5FDBB
:1039C0002B20FEF7E9FD00200CE00000E4000020C1
:1039D0001C0100A0204C43442049443A25780D0A9C
:1039E00000000000FEF7E1FD0020FEF7DEFD0120F3
:1039F000FEF7DBFD3F20FEF7D8FD2A20FEF7CCFDC9
:103A00000020FEF7D2FD0020FEF7CFFD0020FEF7DC
:103A1000CCFDEF20FEF7C9FD1120FEF7BDFD78209B
:103A200004F0BEFA2920FEF7B7FD03F01DB9FE48E9
:103A3000808846F6040188427ED11120FEF7ACFD55
:103A4000142004F0ADFAD020FEF7A6FD0720FEF703
:103A5000ACFD4220FEF7A9FD1D20FEF7A6FDD120FA
:103A6000FEF79AFD0020FEF7A0FD1A20FEF79DFD4F
:103A70000920FEF79AFDD220FEF78EFD0120FEF709
:103A800094FD2220FEF791FDC020FEF785FD102059
:103A9000FEF78BFD3B20FEF788FD0020FEF785FD3D
:103AA0000220FEF782FD1120FEF77FFDC520FEF704
:103AB00073FD0320FEF779FDC820FEF76DFD0020A1
:103AC000FEF773FD2520FEF770FD2120FEF76DFD4A
:103AD0000520FEF76AFD0020FEF767FD0A20FEF7CD
:103AE00064FD6520FEF761FD2520FEF75EFD772071
:103AF000FEF75BFD5020FEF758FD0F20FEF755FD49
:103B00000020FEF752FDF820FEF746FD0120FEF7EB
:103B10004CFDFE20FEF740FD0020FEF746FD022092
:103B2000FEF743FD2020FEF737FD3620FEF734FD7B
:103B30000820FEF73AFD00E02AE03A20FEF72CFDCF
:103B40005520FEF732FD2B20FEF726FD0020FEF764
:103B50002CFD0020FEF729FD0120FEF726FD3F2069
:103B6000FEF723FD2A20FEF717FD0020FEF71DFDBE
:103B70000020FEF71AFD0120FEF717FDDF20FEF7FB
:103B800014FD782004F00CFA2920FEF705FD4CE71F
:103B9000A548808845F21031884240F07C87ED20AE
:103BA000FEF7FAFC0120FEF700FDFE20FEF7FDFC0B
:103BB000EE20FEF7F1FCDE20FEF7F7FC2120FEF7F9
:103BC000F4FCF120FEF7E8FC0120FEF7EEFCDF201C
:103BD000FEF7E2FC1020FEF7E8FCC420FEF7DCFC58
:103BE0008F20FEF7E2FCC620FEF7D6FC0020FEF791
:103BF000DCFCE220FEF7D9FCE220FEF7D6FCE22056
:103C0000FEF7D3FCBF20FEF7C7FCAA20FEF7CDFCD1
:103C1000B020FEF7C1FC0D20FEF7C7FC0020FEF728
:103C2000C4FC0D20FEF7C1FC0020FEF7BEFC1120F5
:103C3000FEF7BBFC0020FEF7B8FC1920FEF7B5FC30
:103C40000020FEF7B2FC2120FEF7AFFC0020FEF7BB
:103C5000ACFC2D20FEF7A9FC0020FEF7A6FC3D20C1
:103C6000FEF7A3FC0020FEF7A0FC5D20FEF79DFC04
:103C70000020FEF79AFC5D20FEF797FC0020FEF77F
:103C800094FCB120FEF788FC8020FEF78EFC00201B
:103C9000FEF78BFC8B20FEF788FC0020FEF785FCEE
:103CA0009620FEF782FC0020FEF77FFCB220FEF794
:103CB00073FC0020FEF779FC0020FEF776FC022062
:103CC000FEF773FC0020FEF770FC0320FEF76DFC8E
:103CD0000020FEF76AFCB320FEF75EFC0020FEF732
:103CE00064FC0020FEF761FC0020FEF75EFC002073
:103CF000FEF75BFC0020FEF758FC0020FEF755FCA9
:103D00000020FEF752FC0020FEF74FFC0020FEF7DB
:103D10004CFC0020FEF749FC0020FEF746FC00208A
:103D2000FEF743FC0020FEF740FC0020FEF73DFCC0
:103D30000020FEF73AFC0020FEF737FC0020FEF7DB
:103D400034FC0020FEF731FC0020FEF72EFC0020A2
:103D5000FEF72BFC0020FEF728FC0020FEF725FCD8
:103D60000020FEF722FC0020FEF71FFCB420FEF727
:103D700013FC8B20FEF719FC0020FEF716FC9620A2
:103D8000FEF713FC0020FEF710FCA120FEF70DFC4F
:103D90000020FEF70AFCB520FEF7FEFB0220FEF72E
:103DA00004FC0020FEF701FC0320FEF7FEFB0020D0
:103DB000FEF7FBFB0420FEF7F8FB0020FEF7F5FB07
:103DC000B620FEF7E9FB0020FEF7EFFB0020FEF730
:103DD000ECFBB720FEF7E0FB0020FEF7E6FB00203F
:103DE000FEF7E3FB3F20FEF7E0FB0020FEF7DDFBE4
:103DF0005E20FEF7DAFB0020FEF7D7FB6420FEF71B
:103E0000D4FB0020FEF7D1FB8C20FEF7CEFB002078
:103E1000FEF7CBFBAC20FEF7C8FB0020FEF7C5FB8E
:103E2000DC20FEF7C2FB01E0E40000200020FEF7EA
:103E3000BCFB7020FEF7B9FB0020FEF7B6FB90201C
:103E4000FEF7B3FB0020FEF7B0FBEB20FEF7ADFB67
:103E50000020FEF7AAFBDC20FEF7A7FB0020FEF700
:103E6000A4FBB820FEF798FB0020FEF79EFB002085
:103E7000FEF79BFB0020FEF798FB0020FEF795FB6A
:103E80000020FEF792FB0020FEF78FFB0020FEF7DC
:103E90008CFB0020FEF789FBBA20FEF77DFB242077
:103EA000FEF783FB0020FEF780FB0020FEF77DFB82
:103EB0000020FEF77AFBC120FEF76EFB2020FEF704
:103EC00074FB0020FEF771FB5420FEF76EFB002010
:103ED000FEF76BFBFF20FEF768FB0020FEF765FB9B
:103EE000C220FEF759FB0A20FEF75FFB0020FEF719
:103EF0005CFB0420FEF759FB0020FEF756FBC320B5
:103F0000FEF74AFB3C20FEF750FB0020FEF74DFB7E
:103F10003A20FEF74AFB0020FEF747FB3920FEF768
:103F200044FB0020FEF741FB3720FEF73EFB00205C
:103F3000FEF73BFB3C20FEF738FB0020FEF735FB8D
:103F40003620FEF732FB0020FEF72FFB3220FEF773
:103F50002CFB0020FEF729FB2F20FEF726FB00207C
:103F6000FEF723FB2C20FEF720FB0020FEF71DFBB5
:103F70002920FEF71AFB0020FEF717FB2620FEF78C
:103F800014FB0020FEF711FB2420FEF70EFB00209F
:103F9000FEF70BFB2420FEF708FB0020FEF705FBD5
:103FA0002320FEF702FB0020FEF7FFFA3C20FEF77D
:103FB000FCFA0020FEF7F9FA3620FEF7F6FA0020A8
:103FC000FEF7F3FA3220FEF7F0FA0020FEF7EDFAE2
:103FD0002F20FEF7EAFA0020FEF7E7FA2C20FEF782
:103FE000E4FA0020FEF7E1FA2920FEF7DEFA0020CD
:103FF000FEF7DBFA2620FEF7D8FA0020FEF7D5FA06
:104000002420FEF7D2FA0020FEF7CFFA2420FEF794
:10401000CCFA0020FEF7C9FA2320FEF7C6FA0020EA
:10402000FEF7C3FAC420FEF7B7FA6220FEF7BDFA26
:104030000020FEF7BAFA0520FEF7B7FA0020FEF7D7
:10404000B4FA8420FEF7B1FA0020FEF7AEFAF020B1
:10405000FEF7ABFA0020FEF7A8FA1820FEF7A5FA43
:104060000020FEF7A2FAA420FEF79FFA0020FEF738
:104070009CFA1820FEF799FA0020FEF796FA5020D5
:10408000FEF793FA0020FEF790FA0C20FEF78DFA67
:104090000020FEF78AFA1720FEF787FA0020FEF7C5
:1040A00084FA9520FEF781FA0020FEF77EFAF320CD
:1040B000FEF77BFA0020FEF778FAE620FEF775FAA5
:1040C0000020FEF772FAC520FEF766FA3220FEF7EE
:1040D0006CFA0020FEF769FA4420FEF766FA002029
:1040E000FEF763FA6520FEF760FA0020FEF75DFA3E
:1040F0007620FEF75AFA0020FEF757FA8820FEF7DE
:1041000054FA0020FEF751FAC620FEF745FA2020A7
:10411000FEF74BFA0020FEF748FA1720FEF745FAA3
:104120000020FEF742FA0120FEF73FFA0020FEF7DA
:104130003CFAC720FEF730FA0020FEF736FA0020DE
:10414000FEF733FA0020FEF730FA0020FEF72DFAD2
:10415000C820FEF721FA0020FEF727FA0020FEF71C
:1041600024FA0020FEF721FA0020FEF71EFAC920EB
:10417000FEF712FA0020FEF718FA0020FEF715FAF3
:104180000020FEF712FA0020FEF70FFA0020FEF7DB
:104190000CFA0020FEF709FA0020FEF706FA0020CC
:1041A000FEF703FA0020FEF700FA0020FEF7FDF903
:1041B0000020FEF7FAF90020FEF7F7F90020FEF7DD
:1041C000F4F90020FEF7F1F90020FEF7EEF90020E7
:1041D000FEF7EBF9E020FEF7DFF91620FEF7E5F930
:1041E0000020FEF7E2F91C20FEF7DFF90020FEF7C1
:1041F000DCF92120FEF7D9F90020FEF7D6F93620A8
:10420000FEF7D3F90020FEF7D0F94620FEF7CDF9EE
:104210000020FEF7CAF95220FEF7C7F90020FEF78A
:10422000C4F96420FEF7C1F90020FEF7BEF97A2038
:10423000FEF7BBF90020FEF7B8F98B20FEF7B5F9C1
:104240000020FEF7B2F99920FEF7AFF90020FEF743
:10425000ACF9A820FEF7A9F90020FEF7A6F9B920CD
:10426000FEF7A3F90020FEF7A0F9C420FEF79DF9A0
:104270000020FEF79AF9CA20FEF797F90020FEF712
:1042800094F9D220FEF791F90020FEF78EF9D9209B
:10429000FEF78BF90020FEF788F9E020FEF785F99C
:1042A0000020FEF782F9F320FEF77FF90020FEF7E9
:1042B0007CF9E120FEF770F91620FEF776F9002070
:1042C000FEF773F91C20FEF770F90020FEF76DF978
:1042D0002220FEF76AF90020FEF767F93620FEF784
:1042E00064F90020FEF761F94520FEF75EF9002031
:1042F000FEF75BF95220FEF758F90020FEF755F95A
:104300006420FEF752F90020FEF74FF97A20FEF7FD
:104310004CF90020FEF749F98B20FEF746F9002002
:10432000FEF743F99920FEF740F90020FEF73DF92A
:10433000A820FEF73AF90020FEF737F9B920FEF77A
:1043400034F90020FEF731F9C420FEF72EF90020E1
:10435000FEF72BF9CA20FEF728F90020FEF725F911
:10436000D220FEF722F90020FEF71FF9D820FEF731
:104370001CF90020FEF719F9E020FEF716F90020DD
:10438000FEF713F9F320FEF710F90020FEF70DF900
:10439000E220FEF701F90520FEF707F90020FEF7FD
:1043A00004F90B20FEF701F90020FEF7FEF81B20B0
:1043B000FEF7FBF80020FEF7F8F83420FEF7F5F8DA
:1043C0000020FEF7F2F84420FEF7EFF80020FEF799
:1043D000ECF84F20FEF7E9F80020FEF7E6F8612040
:1043E000FEF7E3F80020FEF7E0F87920FEF7DDF8AD
:1043F0000020FEF7DAF88820FEF7D7F80020FEF755
:10440000D4F89720FEF7D1F80020FEF7CEF8A620CA
:10441000FEF7CBF80020FEF7C8F8B720FEF7C5F886
:104420000020FEF7C2F8C220FEF7BFF80020FEF71A
:10443000BCF8C720FEF7B9F80020FEF7B6F8D12087
:10444000FEF7B3F80020FEF7B0F8D620FEF7ADF87F
:104450000020FEF7AAF8DD20FEF7A7F80020FEF7FF
:10446000A4F8F320FEF7A1F80020FEF79EF8E32061
:10447000FEF792F80520FEF798F80020FEF795F871
:104480000A20FEF792F80020FEF78FF81C20FEF7B6
:104490008CF80020FEF789F83320FEF786F800201C
:1044A000FEF783F84420FEF780F80020FEF77DF841
:1044B0005020FEF77AF80020FEF777F86220FEF72A
:1044C00074F80020FEF771F87820FEF76EF80020EF
:1044D000FEF76BF88820FEF768F80020FEF765F815
:1044E0009720FEF762F80020FEF75FF8A620FEF79F
:1044F0005CF80020FEF759F8B720FEF756F80020C8
:10450000FEF753F8C220FEF750F80020FEF74DF8F2
:10451000C720FEF74AF80020FEF747F8D120FEF743
:1045200044F80020FEF741F8D520FEF73EF80020C1
:10453000FEF73BF8DD20FEF738F80020FEF735F8EF
:10454000F320FEF732F80020FEF72FF8E420FEF704
:1045500023F80120FEF729F80020FEF726F80120B5
:10456000FEF723F80020FEF720F80220FEF71DF8E2
:104570000020FEF71AF82A20FEF717F80020FEF7B1
:1045800014F83C20FEF711F80020FEF70EF84B203F
:10459000FEF70BF80020FEF708F85D20FEF705F89F
:1045A0000020FEF702F87420FDF7FFFF0020FDF762
:1045B000FCFF8420FDF7F9FF0020FDF7F6FF9320B4
:1045C000FDF7F3FF0020FDF7F0FFA220FDF7EDFF60
:1045D0000020FDF7EAFFB320FDF7E7FF0020FDF71D
:1045E000E4FFBE20FDF7E1FF0020FDF7DEFFC42061
:1045F000FDF7DBFF0020FDF7D8FFCD20FDF7D5FF4D
:104600000020FDF7D2FFD320FDF7CFFF0020FDF7FC
:10461000CCFFDD20FDF7C9FF0020FDF7C6FFF3202A
:10462000FDF7C3FF0020FDF7C0FFE520FDF7B4FF55
:104630000020FDF7BAFF0020FDF7B7FF0020FDF7CF
:10464000B4FF0020FDF7B1FF0220FDF7AEFF002010
:10465000FDF7ABFF2920FDF7A8FF0020FDF7A5FF20
:104660003C20FDF7A2FF0020FDF79FFF4B20FDF748
:104670009CFF0020FDF799FF5D20FDF796FF0020CD
:10468000FDF793FF7420FDF790FF0020FDF78DFFED
:104690008420FDF78AFF0020FDF787FF9320FDF7B8
:1046A00084FF0020FDF781FFA220FDF77EFF0020A0
:1046B000FDF77BFFB320FDF778FF0020FDF775FFC6
:1046C000BE20FDF772FF0020FDF76FFFC420FDF74D
:1046D0006CFF0020FDF769FFCD20FDF766FF00208D
:1046E000FDF763FFD320FDF760FF0020FDF75DFFBE
:1046F000DC20FDF75AFF0020FDF757FFF320FDF700
:1047000054FF0020FDF751FFE620FDF745FF112083
:10471000FDF74BFF0020FDF748FF3420FDF745FF74
:104720000020FDF742FF5620FDF73FFF0020FDF778
:104730003CFF7620FDF739FF0020FDF736FF77209C
:10474000FDF733FF0020FDF730FF6620FDF72DFF5A
:104750000020FDF72AFF8820FDF727FF0020FDF746
:1047600024FF9920FDF721FF0020FDF71EFFBB204D
:10477000FDF71BFF0020FDF718FF9920FDF715FF3F
:104780000020FDF712FF6620FDF70FFF0020FDF768
:104790000CFF5520FDF709FF0020FDF706FF55200F
:1047A000FDF703FF0020FDF700FF4520FDF7FDFEAC
:1047B0000020FDF7FAFE4320FDF7F7FE0020FDF78D
:1047C000F4FE4420FDF7F1FE0020FDF7EEFEE720A9
:1047D000FDF7E2FE3220FDF7E8FE0020FDF7E5FEE2
:1047E0005520FDF7E2FE0020FDF7DFFE7620FDF705
:1047F000DCFE0020FDF7D9FE6620FDF7D6FE002086
:10480000FDF7D3FE6720FDF7D0FE0020FDF7CDFEBB
:104810006720FDF7CAFE0020FDF7C7FE8720FDF7E1
:10482000C4FE0020FDF7C1FE9920FDF7BEFE00206A
:10483000FDF7BBFEBB20FDF7B8FE0020FDF7B5FE7F
:104840009920FDF7B2FE0020FDF7AFFE7720FDF7BF
:10485000ACFE0020FDF7A9FE4420FDF7A6FE0020D7
:10486000FDF7A3FE5620FDF7A0FE0020FDF79DFEFC
:104870002320FDF79AFE0020FDF797FE3320FDF779
:1048800094FE0020FDF791FE4520FDF78EFE0020EE
:10489000FDF78BFEE820FDF77FFE0020FDF785FE8B
:1048A0000020FDF782FE9920FDF77FFE0020FDF736
:1048B0007CFE8720FDF779FE0020FDF776FE88203C
:1048C000FDF773FE0020FDF770FE7720FDF76DFE0B
:1048D0000020FDF76AFE6620FDF767FE0020FDF769
:1048E00064FE8820FDF761FE0020FDF75EFEAA2031
:1048F000FDF75BFE0020FDF758FEBB20FDF755FEDF
:104900000020FDF752FE9920FDF74FFE0020FDF735
:104910004CFE6620FDF749FE0020FDF746FE5520BF
:10492000FDF743FE0020FDF740FE5520FDF73DFE5C
:104930000020FDF73AFE4420FDF737FE0020FDF78A
:1049400034FE4420FDF731FE0020FDF72EFE5520F9
:10495000FDF72BFE0020FDF728FEE920FDF71CFEE9
:10496000AA20FDF722FE0020FDF71FFE0020FDF724
:104970001CFE0020FDF719FE0020FDF70DFEAA2009
:10498000FDF713FECF20FDF707FE0020FDF70DFE1B
:104990000020FDF70AFE0020FDF707FE0020FDF7CE
:1049A00004FE0020FDF701FE0020FDF7FEFD0020C3
:1049B000FDF7FBFD0020FDF7F8FD0020FDF7F5FDFC
:1049C0000020FDF7F2FD0020FDF7EFFD0020FDF7D0
:1049D000ECFD0020FDF7E9FD0020FDF7E6FD0020DD
:1049E000FDF7E3FD0020FDF7E0FD0020FDF7DDFD14
:1049F000F020FDF7D1FD0020FDF7D7FD5020FDF799
:104A0000D4FD0020FDF7D1FD0020FDF7CEFD0020F4
:104A1000FDF7CBFDF320FDF7BFFD0020FDF7C5FD41
:104A2000F920FDF7B9FD0620FDF7BFFD1020FDF7C9
:104A3000BCFD2920FDF7B9FD0020FDF7B6FD3A20A9
:104A4000FDF7AAFD5520FDF7B0FD1120FDF7A4FDEF
:104A5000642003F0A5FA2920FDF79EFD3520FDF71F
:104A60009BFD0020FDF7A1FD5120FDF795FDFF20E6
:104A7000FDF79BFD5320FDF78FFD2C20FDF795FDE5
:104A80005520FDF789FD8220FDF78FFD2C20FDF7D5
:104A900083FD02F0E9B8FE48808845F21051884253
:104AA0007ED155214FF47040FDF791FDAA214FF2C0
:104AB0000100FDF78CFD52214FF20200FDF787FD4A
:104AC00008214FF20300FDF782FD01214FF204009F
:104AD000FDF77DFD0D214FF43040FDF778FD0D21F0
:104AE0004BF20100FDF773FD0D214BF20200FDF7C3
:104AF0006EFD34214FF43640FDF769FD34214BF251
:104B00000160FDF764FD34214BF20260FDF75FFDAB
:104B10000D214FF43140FDF75AFD0D214BF20110EC
:104B2000FDF755FD0D214BF20210FDF750FD34212C
:104B30004FF43740FDF74BFD34214BF20170FDF788
:104B400046FD34214BF20270FDF741FD00214FF488
:104B50003240FDF73CFD00214BF20120FDF737FD0F
:104B600000214BF20220FDF732FD24214FF43840A2
:104B7000FDF72DFD24214BF60100FDF728FD242132
:104B80004BF60200FDF723FD01214FF43F40FDF7F6
:104B90001EFD0F214FF43340FDF719FD0F2100E0FA
:104BA000FEE34BF20130FDF712FD0F214BF2023014
:104BB000FDF70DFD34214FF43940FDF708FD342198
:104BC0004BF60110FDF703FD34214BF60210FDF703
:104BD000FEFC08214FF43540FDF7F9FC08214BF2AB
:104BE0000150FDF7F4FC08214BF20250FDF7EFFCF9
:104BF00003214FF44240FDF7EAFC24214FF43A40F0
:104C0000FDF7E5FC24214BF60120FDF7E0FC242113
:104C10004BF60220FDF7DBFC00214FF43C40FDF792
:104C2000D6FC78214BF60140FDF7D1FC00214BF674
:104C30000240FDF7CCFC00214FF43D40FDF7C7FCDE
:104C400078214BF60150FDF7C2FC00214BF60250D3
:104C5000FDF7BDFC00214FF43E40FDF7B8FC642198
:104C60004BF60160FDF7B3FC00214FF45140FDF716
:104C7000AEFC33214DF20110FDF7A9FC00214DF2ED
:104C80000210FDF7A4FC34214DF20310FDF79FFC48
:104C900000214DF20410FDF79AFC3A214DF2051067
:104CA000FDF795FC00214DF20610FDF790FC4A211E
:104CB0004DF20710FDF78BFC00214DF20810FDF7B7
:104CC00086FC5C214DF20910FDF781FC00214DF2BC
:104CD0000A10FDF77CFC81214DF20B10FDF777FCEB
:104CE00000214DF20C10FDF772FCA6214DF20D10C3
:104CF000FDF76DFC00214DF20E10FDF768FCE5217B
:104D00004DF20F10FDF763FC01214DF21010FDF77D
:104D10005EFC13214DF21110FDF759FC01214DF2FB
:104D20001210FDF754FC54214DF21310FDF74FFC07
:104D300001214DF21410FDF74AFC82214DF21510AD
:104D4000FDF745FC01214DF21610FDF740FCCA218C
:104D50004DF21710FDF73BFC02214DF21810FDF744
:104D600036FC00214DF21910FDF731FC02214DF205
:104D70001A10FDF72CFC01214DF21B10FDF727FC4A
:104D800002214DF21C10FDF722FC34214DF21D10C2
:104D9000FDF71DFC02214DF21E10FDF718FC6721E6
:104DA0004DF21F10FDF713FC02214DF22010FDF70C
:104DB0000EFC84214DF22110FDF709FC02214DF279
:104DC0002210FDF704FCA4214DF22310FDF7FFFB98
:104DD00002214DF22410FDF7FAFBB7214DF2251008
:104DE000FDF7F5FB02214DF22610FDF7F0FBCF2178
:104DF0004DF22710FDF7EBFB02214DF22810FDF7D5
:104E0000E6FBDE214DF22910FDF7E1FB02214DF218
:104E10002A10FDF7DCFBF2214DF22B10FDF7D7FB3A
:104E200002214DF22C10FDF7D2FBFE214DF22D1088
:104E3000FDF7CDFB03214DF22E10FDF7C8FB10212D
:104E40004DF22F10FDF7C3FB03214DF23010FDF79B
:104E5000BEFB33214DF23110FDF7B9FB03214DF2BA
:104E60003210FDF7B4FB6D214DF23310FDF7AFFBAF
:104E700000214FF45240FDF7AAFB33214DF20120EF
:104E8000FDF7A5FB00214DF20220FDF7A0FB01E09C
:104E9000E400002034214DF20320FDF798FB0021AF
:104EA0004DF20420FDF793FB3A214DF20520FDF76A
:104EB0008EFB00214DF20620FDF789FB4A214DF2C1
:104EC0000720FDF784FB00214DF20820FDF77FFB52
:104ED0005C214DF20920FDF77AFB00214DF20A20FA
:104EE000FDF775FB81214DF20B20FDF770FB0021D2
:104EF0004DF20C20FDF76BFBA6214DF20D20FDF7C6
:104F000066FB00214DF20E20FDF761FBE5214DF21D
:104F10000F20FDF75CFB01214DF21020FDF757FB40
:104F200013214DF21120FDF752FB01214DF2122009
:104F3000FDF74DFB54214DF21320FDF748FB0121F5
:104F40004DF21420FDF743FB82214DF21520FDF7B1
:104F50003EFB01214DF21620FDF739FBCA214DF22F
:104F60001720FDF734FB02214DF21820FDF72FFB2F
:104F700000214DF21920FDF72AFB02214DF21A20E3
:104F8000FDF725FB01214DF21B20FDF720FB02213F
:104F90004DF21C20FDF71BFB34214DF21D20FDF7C7
:104FA00016FB02214DF21E20FDF711FB67214DF289
:104FB0001F20FDF70CFB02214DF22020FDF707FB1F
:104FC00084214DF22120FDF702FB02214DF2222027
:104FD000FDF7FDFAA4214DF22320FDF7F8FA022196
:104FE0004DF22420FDF7F3FAB7214DF22520FDF70D
:104FF000EEFA02214DF22620FDF7E9FACF214DF21B
:105000002720FDF7E4FA02214DF22820FDF7DFFA10
:10501000DE214DF22920FDF7DAFA02214DF22A2095
:10502000FDF7D5FAF2214DF22B20FDF7D0FA02213F
:105030004DF22C20FDF7CBFAFE214DF22D20FDF78D
:10504000C6FA03214DF22E20FDF7C1FA10214DF2D0
:105050002F20FDF7BCFA03214DF23020FDF7B7FAFF
:1050600033214DF23120FDF7B2FA03214DF2322007
:10507000FDF7ADFA6D214DF23320FDF7A8FA0021BE
:105080004FF45340FDF7A3FA33214DF20130FDF701
:105090009EFA00214DF20230FDF799FA34214DF2CB
:1050A0000330FDF794FA00214DF20430FDF78FFA3A
:1050B0003A214DF20530FDF78AFA00214DF2063013
:1050C000FDF785FA4A214DF20730FDF780FA0021FD
:1050D0004DF20830FDF77BFA5C214DF20930FDF707
:1050E00076FA00214DF20A30FDF771FA81214DF276
:1050F0000B30FDF76CFA00214DF20C30FDF767FA2A
:10510000A6214DF20D30FDF762FA00214DF20E306E
:10511000FDF75DFAE5214DF20F30FDF758FA012158
:105120004DF21030FDF753FA13214DF21130FDF717
:105130004EFA01214DF21230FDF749FA54214DF299
:105140001330FDF744FA01214DF21430FDF73FFA18
:1051500082214DF21530FDF73AFA01214DF2163059
:10516000FDF735FACA214DF21730FDF730FA02216A
:105170004DF21830FDF72BFA00214DF21930FDF7F2
:1051800026FA02214DF21A30FDF721FA01214DF2E3
:105190001B30FDF71CFA02214DF21C30FDF717FA07
:1051A00034214DF21D30FDF712FA02214DF21E306E
:1051B000FDF70DFA67214DF21F30FDF708FA0221C5
:1051C0004DF22030FDF703FA84214DF22130FDF736
:1051D000FEF902214DF22230FDF7F9F9A4214DF23A
:1051E0002330FDF7F4F902214DF22430FDF7EFF9F9
:1051F000B7214DF22530FDF7EAF902214DF22630B4
:10520000FDF7E5F9CF214DF22730FDF7E0F9022156
:105210004DF22830FDF7DBF9DE214DF22930FDF7A4
:10522000D6F902214DF22A30FDF7D1F9F2214DF2E3
:105230002B30FDF7CCF902214DF22C30FDF7C7F9E8
:10524000FE214DF22D30FDF7C2F903214DF22E3033
:10525000FDF7BDF910214DF22F30FDF7B8F903210C
:105260004DF23030FDF7B3F933214DF23130FDF717
:10527000AEF903214DF23230FDF7A9F96D214DF25F
:105280003330FDF7A4F900214FF45440FDF79FF9A6
:1052900033214DF20140FDF79AF900214DF2024011
:1052A000FDF795F934214DF20340FDF790F9002107
:1052B0004DF20440FDF78BF93A214DF20540FDF720
:1052C00086F900214DF20640FDF781F94A214DF2A1
:1052D0000740FDF77CF900214DF20840FDF777F912
:1052E0005C214DF20940FDF772F900214DF20A40B0
:1052F000FDF76DF981214DF20B40FDF768F90021B2
:105300004DF20C40FDF763F9A6214DF20D40FDF77B
:105310005EF900214DF20E40FDF759F9E5214DF2FD
:105320000F40FDF754F901214DF21040FDF74FF900
:1053300013214DF21140FDF74AF901214DF21240BF
:10534000FDF745F954214DF21340FDF740F90121D5
:105350004DF21440FDF73BF982214DF21540FDF767
:1053600036F901214DF21640FDF731F9CA214DF20F
:105370001740FDF72CF902214DF21840FDF727F9EF
:1053800000214DF21940FDF722F902214DF21A4099
:10539000FDF71DF901214DF21B40FDF718F900E062
:1053A00004E302214DF21C40FDF711F934214DF2C6
:1053B0001D40FDF70CF902214DF21E40FDF707F9E3
:1053C00067214DF21F40FDF702F902214DF2204006
:1053D000FDF7FDF884214DF22140FDF7F8F8022198
:1053E0004DF22240FDF7F3F8A4214DF22340FDF7E2
:1053F000EEF802214DF22440FDF7E9F8B7214DF215
:105400002540FDF7E4F802214DF22640FDF7DFF8D4
:10541000CF214DF22740FDF7DAF802214DF2284066
:10542000FDF7D5F8DE214DF22940FDF7D0F8022135
:105430004DF22A40FDF7CBF8F2214DF22B40FDF75B
:10544000C6F802214DF22C40FDF7C1F8FE214DF2C5
:105450002D40FDF7BCF803214DF22E40FDF7B7F8C3
:1054600010214DF22F40FDF7B2F803214DF23040EC
:10547000FDF7ADF833214DF23140FDF7A8F80321D7
:105480004DF23240FDF7A3F86D214DF23340FDF7A8
:105490009EF800214FF45540FDF799F833214DF265
:1054A0000150FDF794F800214DF20250FDF78FF8FE
:1054B00034214DF20350FDF78AF800214DF20450DB
:1054C000FDF785F83A214DF20550FDF780F80021EF
:1054D0004DF20650FDF77BF84A214DF20750FDF7DB
:1054E00076F800214DF20850FDF771F85C214DF27D
:1054F0000950FDF76CF800214DF20A50FDF767F8EE
:1055000081214DF20B50FDF762F800214DF20C5055
:10551000FDF75DF8A6214DF20D50FDF758F800217A
:105520004DF20E50FDF753F8E5214DF20F50FDF707
:105530004EF801214DF21050FDF749F813214DF2BC
:105540001150FDF744F801214DF21250FDF73FF8DC
:1055500054214DF21350FDF73AF801214DF2145049
:10556000FDF735F882214DF21550FDF730F8012195
:105570004DF21650FDF72BF8CA214DF21750FDF7EA
:1055800026F802214DF21850FDF721F800214DF2C6
:105590001950FDF71CF802214DF21A50FDF717F8CB
:1055A00001214DF21B50FDF712F802214DF21C5063
:1055B000FDF70DF834214DF21D50FDF708F80221DA
:1055C0004DF21E50FDF703F867214DF21F50FCF716
:1055D000FEFF02214DF22050FCF7F9FF84214DF22D
:1055E0002150FCF7F4FF02214DF22250FCF7EFFFAF
:1055F000A4214DF22350FCF7EAFF02214DF2245082
:10560000FCF7E5FFB7214DF22550FCF7E0FF022142
:105610004DF22650FCF7DBFFCF214DF22750FCF76F
:10562000D6FF02214DF22850FCF7D1FFDE214DF2CA
:105630002950FCF7CCFF02214DF22A50FCF7C7FF9E
:10564000F2214DF22B50FCF7C2FF02214DF22C50FB
:10565000FCF7BDFFFE214DF22D50FCF7B8FF0321F2
:105660004DF22E50FCF7B3FF10214DF22F50FCF7F6
:10567000AEFF03214DF23050FCF7A9FF33214DF26C
:105680003150FCF7A4FF03214DF23250FCF79FFF8D
:105690006D214DF23350FCF79AFF00214FF4564034
:1056A000FCF795FF33214DF20160FCF790FF0021DC
:1056B0004DF20260FCF78BFF34214DF20360FCF7E2
:1056C00086FF00214DF20460FCF781FF3A214DF284
:1056D0000560FCF77CFF00214DF20660FCF777FFC8
:1056E0004A214DF20760FCF772FF00214DF208607D
:1056F000FCF76DFF5C214DF20960FCF768FF0021AB
:105700004DF20A60FCF763FF81214DF20B60FCF75C
:105710005EFF00214DF20C60FCF759FFA6214DF20F
:105720000D60FCF754FF00214DF20E60FCF74FFFB7
:10573000E5214DF20F60FCF74AFF01214DF21060A8
:10574000FCF745FF13214DF21160FCF740FF0121EA
:105750004DF21260FCF73BFF54214DF21360FCF751
:1057600036FF01214DF21460FCF731FF82214DF22A
:105770001560FCF72CFF01214DF21660FCF727FFA6
:10578000CA214DF21760FCF722FF02214DF218608A
:10579000FCF71DFF00214DF21960FCF718FF0221F4
:1057A0004DF21A60FCF713FF01214DF21B60FCF76C
:1057B0000EFF02214DF21C60FCF709FF34214DF26F
:1057C0001D60FCF704FF02214DF21E60FCF7FFFE96
:1057D00067214DF21F60FCF7FAFE02214DF22060B6
:1057E000FCF7F5FE84214DF22160FCF7F0FE02216A
:1057F0004DF22260FCF7EBFEA4214DF22360FCF792
:10580000E6FE02214DF22460FCF7E1FEB7214DF2E5
:105810002560FCF7DCFE02214DF22660FCF7D7FE86
:10582000CF214DF22760FCF7D2FE02214DF2286015
:10583000FCF7CDFEDE214DF22960FCF7C8FE022107
:105840004DF22A60FCF7C3FEF2214DF22B60FCF70B
:10585000BEFE02214DF22C60FCF7B9FEFE214DF296
:105860002D60FCF7B4FE03214DF22E60FCF7AFFE75
:1058700010214DF22F60FCF7AAFE03214DF230609B
:10588000FCF7A5FE33214DF23160FCF7A0FE0321A9
:105890004DF23260FCF79BFE6D214DF23360FCF758
:1058A00096FE55214FF47040FCF791FEAA214FF26D
:1058B0000100FCF78CFE52214FF20200FCF787FE3C
:1058C00008214FF20300FCF782FE00214FF2040092
:1058D000FCF77DFECC214FF43140FCF778FE00212F
:1058E0004BF20110FCF773FE05214FF43640FCF734
:1058F0006EFE70214FF43740FCF769FE70214BF2C9
:105900000170FCF764FE01214FF43840FCF75FFEA4
:1059100003214BF60100FCF75AFE03214BF602006F
:10592000FCF755FE03214BF60300FCF750FE022165
:105930004FF43C40FCF74BFE00214BF60140FCF7D6
:1059400046FE00214BF60240FCF741FED0214FF409
:105950004940FCF73CFE02214CF60110FCF737FEF3
:1059600050214CF60210FCF732FE50214CF6031089
:10597000FCF72DFE50214CF60410FCF728FE002108
:105980004FF45450FCF723FE55214FF46850FCF7B8
:105990001EFE4FF48850FCF7FFFD782002F0B8FAA5
:1059A0004FF42450FCF7F8FD01F05EB9FE48808802
:1059B00049F2253188427DD147F6F001E520FCF718
:1059C00006FE4FF480710120FCF701FE4FF4E06108
:1059D0000220FCF7FCFD41F230010320FCF7F7FD4B
:1059E00000210420FCF7F3FD40F202210820FCF71F
:1059F000EEFD00210920FCF7EAFD00210A20FCF75A
:105A0000E6FD00210C20FCF7E2FD00210D20FCF753
:105A1000DEFD00210F20FCF7DAFD00211020FCF74D
:105A2000D6FD07211120FCF7D2FD00211220FCF742
:105A3000CEFD00211320FCF7CAFD00210720FCF752
:105A4000C6FD41F290611020FCF7C1FD40F2272114
:105A50001120FCF7BCFD9D211220FCF7B8FD4FF48E
:105A6000C8511320FCF7B3FD25212920FCF7AFFD19
:105A70000D212B20FCF7ABFD07213020FCF7A7FD03
:105A800040F203313120FCF7A2FD03213220FCF764
:105A90009EFD40F206213520FCF799FD08213620B5
:105AA000FCF795FD40F206413720FCF790FD4FF4DE
:105AB000417100E058E03820FCF789FD07213920CA
:105AC000FCF785FD40F202613C20FCF780FD0821D7
:105AD0003D20FCF77CFD00215020FCF778FDEF21F4
